:020000040000FA
:1000000018040020D9000000F3000000D90B000004
:1000100000000000000000000000000000000000E0
:10002000000000000000000000000000F7000000D9
:100030000000000000000000F90000007B0D00003F
:10004000130C00001B0C000000000000000000006A
:1000500000000000B30600000000000000000000E7
:10006000F50B0000FD0B0000310C0000000000004B
:100070000000000000000000170700001F0700003C
:100080000000000000000000D10B00000000000094
:100090000000000000000000EB0B0000270C000037
:1000A000E505000000000000E90D0000F10D000072
:1000B000050C000000000000C9090000270700002F
:1000C0000448854600F0F8F9004800471F05000085
:1000D000C046C0461804002009480A4A002100A171
:1000E000814200D902440848026008488047084815
:1000F0000047FEE7FEE7FEE7FEE7FEE7FEE700005B
:10010000000000200000000008ED00E0950D000058
:10011000C100000030B50B4601460020202201241A
:1001200009E00D46D5409D4205D31D469540491B2B
:100130002546954040191546521E002DF1DC30BD74
:10014000D2B201E00270401C491EFBD2704700226F
:10015000F6E710B513460A4604461946FFF7F0FFC6
:10016000204610BDF0B51FB488B00B990998002443
:1001700048400999C00F490049080991C0070B99E7
:100180000090490049080B9109990898A646084330
:100190001CD00B990A98084318D0099801244000F4
:1001A000420D4800410D099824050003000B20432F
:1001B00009900B980003000B20430B9050181C492A
:1001C0004018002201901446104605E00020014628
:1001D0000DB0F0BD032801DA034600E003239C467E
:1001E000C11A0AAE0AE05F0008ADED5B4F00F75B95
:1001F0007D430027AA187C41491C5B1E6145F2DD46
:10020000410004AB5A522104120C0A43240C401C36
:100210000828DFDB01980290009970460191009058
:10022000059B049A0799069800F0F4F8D0E70000BF
:100230000DFCFFFFF0B50C465C4085B0E40FE40711
:1002400003944C000026640859009446490802466D
:100250000296224321D062460A431ED06200570D07
:100260004A000E032303550D012402462C492405A0
:10027000781B1B0B360B4018234326436146009026
:100280001C46501AB44103D30098401C009002E071
:10029000921800985B41002803DA0020014605B05F
:1002A000F0BD0020012109050746864611E064469D
:1002B0001D46141BB54106D36546521BB341744617
:1002C00007430C43A646CD07400849082843921827
:1002D0005B4105460D43EAD11046184313D06046F2
:1002E000194650407140084306D06046101AB34189
:1002F00006D20122002306E000220123DB0702E0F0
:100300000122D2435310009874460105381C614104
:10031000029C039D0019694100F06FF8BFE70000DF
:10032000FD0300000EB505490291002100910A4627
:100330000B46019100F06EF803B000BD33040000DD
:10034000CB0FDB07490010B5490802460A4307D026
:100350000A0D07240903E401090B121B002A01DC22
:10036000002010BDC900440F0C43C100E018D205A5
:10037000801800F001F810BD002904DA401C490083
:1003800001D140084000704770B40024050C05D12D
:100390001024000402D1002921D01124050E01D11E
:1003A00000020834050F01D10001241D850F01D181
:1003B0008000A41C002801DB4000641C002908D038
:1003C00020252E1B0D46F540A14000D001212943D8
:1003D000084301061B1B000ADB1D02D5002070BC70
:1003E0007047DB05181880180029F8DA401C49000E
:1003F000F5D170BC40084000704710B5002B08DAFA
:100400000024401C614192185B411A4301D140080D
:10041000400010BDF0B51FB482B005460C0003D0FB
:10042000084600F0EBFC02E000F0E8FC2030024659
:1004300000902146284600F051F8049B059A044696
:100440000F4618431143084314D0184610431BD0DD
:10045000009840210A1A1846059900F04FF8054601
:100460000E46009A0599049800F038F8084305D024
:10047000012004E02046394607B0F0BD0020C11736
:1004800005430E432C43374300990E986305401AE9
:100490007905E40A00220C43FD0A0A3002D5002047
:1004A0000146E9E70105101969410C9C0D9D0019F1
:1004B0006941FFF7A2FFDFE7064C0125064E05E084
:1004C000E36807CC2B430C3C98471034B442F7D375
:1004D000FFF7FAFD380F0000580F000010B5202A72
:1004E00004DB0146203A9140002010BD91402023BA
:1004F0009C1A0346E3401943904010BD10B5202AD2
:1005000004DB0846203AD040002110BD0B46D34002
:10051000D0402024A21A91400843194610BD10B5BE
:1005200000F038FC00F0CEFC002010BD30B50246D3
:100530000020002A06D0012A0ED0022A19D0032A50
:1005400031D123E01A4B1B681B091B010C07240F38
:100550002343174C236028E0154B1B68FF24E1342C
:10056000A3434C01FF25E1352C402343104C23606D
:100570001BE00F4B1B680F24A402A3438C020F2522
:10058000AD022C4023430A4C23600EE0084B1B684D
:100590000F24E403A343CC030F25ED032C40234396
:1005A000034C236001E0042000BF00BF30BD000009
:1005B0004024004010B50548406801210843034924
:1005C0004860062000F076F910BD000000240040CD
:1005D0000349896B82B21143014A9163704700005D
:1005E0008024004010B500F094F810BD0348406826
:1005F0000121C903084301494860704700240040B5
:100600000249496B8143014A51637047802400408D
:1006100001460448006B0840002801D001207047C3
:100620000020FCE78024004010B5044614484068D0
:1006300001210843124948600A2000F063F9A168CB
:100640002068084361680843E16808430D49084091
:100650000B4949680B4AD243114008430849486096
:1006600007484030806880088000217C491E890747
:10067000890F0843024940318860002010BD000006
:10068000002400400C321E000146024A8800105827
:1006900070470000502400400021016001218904BE
:1006A00041600021816003210903C16001210161D2
:1006B000704710B500F02EF810BD00B585B01421BC
:1006C0006846FFF744FD102000F014FBFFF772FFAF
:1006D0006846FFF7E1FF0F204004019000200290E0
:1006E0000C20009000200390012004906846FFF742
:1006F0009BFF01210020FFF719FF0420FFF768FF8F
:10070000FFF774FF01220321182000F025F905B03E
:1007100000BD7047704710B500F062F810BD10B50D
:1007200000F05FF810BD10B500F082F810BD0000B9
:10073000034800690121084301490861704700002E
:10074000009000400249C9698143014AD161704764
:100750000090004000200149C861704700900040AF
:100760000146044880690840884201D10120704751
:100770000020FCE700900040024949690143014A1A
:10078000516170470090004001460A688868104334
:100790007722120110400C4AD26877231B019A433A
:1007A0001043094AD06010460069FE229043062398
:1007B0004A681A43FE231A401043034A1061C8686E
:1007C0001060002070470000009000400021016090
:1007D000416081600149C16070470000FFFF000077
:1007E000704770471FB50020009001900290039061
:1007F000222000F07FFA222000F096FA6846FFF7E8
:10080000E5FF03200002009070200190074803904C
:100810006846FFF7B9FFFFF79DFF0120FFF7ACFF28
:10082000012211461F2000F097F81FBD117A000029
:1008300010B50120FFF794FF01280ED1FFF7E8FE65
:1008400000280AD00120FFF7DBFE0020FFF71CFF85
:10085000024908600120FFF775FF10BD0400002069
:10086000F8B50746002400260F4910480068FFF736
:1008700051FC784300900E48856912E00C48846969
:10088000AC420ED0AC4202D2281B861904E00848C4
:100890004069001B4019861925460098864200D3FE
:1008A00000E0EBE700BFF8BD1027000000000020CB
:1008B00000E000E0F8B50746002400260E488569F0
:1008C00017E00D488469AC4213D0AC4202D2281B19
:1008D000861904E008484069001B4019861925461E
:1008E000064907480068FFF715FC7843B04200D876
:1008F00000E0E6E700BFF8BD00E000E0A0860100F0
:1009000000000020F8B50746002400267D21C9001C
:100910000F480068FFF7FEFB784300900D4885699B
:1009200012E00C488469AC420ED0AC4202D2281BC3
:10093000861904E007484069001B401986192546BE
:100940000098864200D300E0EBE700BFF8BD00004E
:100950000000002000E000E070B504460E46154699
:100960002046002805DBC206D20E01219140144A20
:10097000116000BF3146204600F058FA012D0ED11B
:100980002046002809DB00BF00BFC206D20E0121AD
:1009900091400C4A116000BF00BF00BF0FE020462D
:1009A00000280ADBC206D20E01219140054A80329E
:1009B0001160BFF34F8FBFF36F8F00BF00BF70BDDB
:1009C00080E200E000E100E010B500F001F810BDA9
:1009D000704700006A4A90426ED00A791207120FDF
:1009E000012A06D1120212580B681A43FF23013361
:1009F0001A500A791207120F022A31D10A7C002AF2
:100A000008D0FF22093212580B681A43FF2309331A
:100A10001A5007E0FF22093212580B689A43FF234D
:100A200009331A50F0234A681A40002A08D0FF22DE
:100A30002D3212580B681A43FF232D331A5007E04A
:100A4000FF222D3212580B689A43FF232D331A5080
:100A5000FF22013212580B689A43FF2301331A50C8
:100A60000A791207120F042A08D1FF220D321258F8
:100A70000B681A43FF230D331A5007E0FF220D3293
:100A800012580B689A43FF230D331A5001231B059C
:100A90008A689A4208D1FF22213212580B681A4301
:100AA000FF2321331A5007E0FF22213212580B682E
:100AB0009A43FF2321331A500F231B024A681A401E
:100AC0009A425BD101231B04CA681A40002A08D04D
:100AD000FF22393212580B681A43FF2339331A5058
:100AE00007E0FF22393212580B689A43FF2339334B
:100AF0001A5001235B04CA681A40002A08D0FF225A
:100B00003D3212580B681A43FF233D331A5007E059
:100B1000FF223D3212580B689A43FF233D331A508F
:100B200001239B04CA681A40002A08D0FF223132F0
:100B300012580B681A43FF2331331A5007E0FF2283
:100B4000313212580B689A43FF2331331A50012374
:100B5000DB04CA681A40002A08D0FF223532125836
:100B60000B681A43FF2335331A5007E0FF22353252
:100B700012580B689A43FF2335331A507047000010
:100B8000400C02400021016004214160002181608D
:100B9000C16001747047000000B585B0142168463B
:100BA000FFF7D5FA1C2000F0A5F86846FFF7EAFF2A
:100BB0000120694608740220019000200290202044
:100BC00000900248FFF706FF05B000BD000C024090
:100BD00010B500F009F810BD08B50020009000BF66
:100BE00000980028FCD008BD704710B500F001F84F
:100BF00010BD704710B500F009F810BD10B500F039
:100C000006F810BD10B500F003F810BD704770472E
:100C1000704710B500F005F810BD10B500F002F8EF
:100C200010BD7047704710B500F001F810BD704757
:100C300010B500F0A1F810BD30B50022002300214E
:100C400025480068E02528400446002C06D0202CCA
:100C500022D0402C22D0602C35D131E01E48C06813
:100C600003252D0428400346002B0AD00120000450
:100C7000181A08D001252D04401B06D0401B08D1AE
:100C800005E0164A06E0164A04E0164A02E0164A53
:100C900000E000BF00BF17E0144A15E00E484069AD
:100CA0008105890D12480089884202D10122D203B0
:100CB00005E00F488089884201D14B22520203E0AF
:100CC0000122D20300E000BF00BF034800684005D6
:100CD000450F1046E84030BD0018024000093D00B5
:100CE000808D5B000048E801006CDC0200127A0095
:100CF000A00710002021014000290BD0202201462E
:100D0000914308460749496A012282401143054A36
:100D1000516206E00349096A012282401143014AF7
:100D2000116270470018024020210140002912D0B2
:100D300020220146914308460E49C96A0122824099
:100D400091430C4AD1621146C96A01228240114383
:100D5000084AD1620DE00749896A01228240914325
:100D6000044A91621146896A012282401143014A74
:100D70009162704700180240704710B500F001F80A
:100D800010BD704710B5FFF757FF0149086010BD4F
:100D90000000002010B50D48C06B0D49C8600D481B
:100DA0000D49C8620D48C8620846006AC9148843E4
:100DB000401809490862FFF7E5FF094809494861F9
:100DC000002088610520086110BD00008007100028
:100DD000001802405A5A000000000240A5A5000079
:100DE000FFFFFF0000E000E010B500F005F810BDC7
:100DF00010B500F002F810BD704770472021020CBA
:100E000001D010211046020A01D01046083902090B
:100E100001D01046091F820801D01046891E4208E1
:100E200001D0881E7047081A7047000010B50028CE
:100E300019DB1A4A03231B02D21883089B00D258DD
:100E40008307DC0EFF23A3409A438B071B0E840706
:100E5000E40EA3401A43114B032424021B198408F7
:100E6000A4001A5118E00E4A03071B0F083B9B0809
:100E70009B00D2588307DC0EFF23A3409A438B07C5
:100E80001B0E8407E40EA3401A43054B0407240FEE
:100E9000083CA408A4001A5110BD000000E100E0C5
:100EA0001CED00E002E008C8121F08C1002AFAD1B8
:100EB00070477047002001E001C1121F002AFBD1DA
:100EC000704700001CB5FFF78DFCFFF765FEFFF7CC
:100ED000F4FBFFF72DFC21E07D20C000FFF7C0FCF4
:100EE0000F480068FFF71EFA04460E4A0E4BFFF744
:100EF00039F9064600220D4BFFF79CF9019100904D
:100F0000FFF71EFA0A49086020200A4948617D203F
:100F1000C000FFF7A5FC202006490861DCE70000BF
:100F2000040000206666666666660A400000B040FF
:100F300010000020000D0240580F000000000020AB
:100F400014000000A40E00006C0F0000140000202C
:100F500004040000B40E000000093D000000000081
:0C0F600000000000000000000000000085
:04000005000000C136
:00000001FF
