:020000040000FA
:1000000008040020D9000000F30000002D040000C7
:1000100000000000000000000000000000000000E0
:10002000000000000000000000000000F7000000D9
:100030000000000000000000F90000007F05000043
:10004000670400006F0400000000000000000000D2
:10005000000000009F010000000000000000000000
:100060004904000051040000850400000000000065
:100070000000000000000000AB010000B301000020
:100080000000000000000000250400000000000047
:1000900000000000000000003F0400007B0400009E
:1000A0009701000000000000ED050000F5050000CC
:1000B00059040000000000001D020000BB01000008
:1000C0000448854600F04EF80048004789010000CA
:1000D000C046C0460804002009480A4A002100A181
:1000E000814200D902440848026008488047084815
:1000F0000047FEE7FEE7FEE7FEE7FEE7FEE700005B
:10010000000000200000000008ED00E0990500005C
:10011000C100000030B50B4601460020202201241A
:1001200009E00D46D5409D4205D31D469540491B2B
:100130002546954040191546521E002DF1DC30BD74
:10014000D2B201E00270401C491EFBD2704700226F
:10015000F6E710B513460A4604461946FFF7F0FFC6
:10016000204610BD064C0125064E05E0E36807CC8D
:100170002B430C3C98471034B442F7D3FFF7A4FF4D
:10018000480600006806000010B500F005FA00F00F
:1001900047FA002010BD10B500F005F810BD10B5ED
:1001A00000F002F810BD7047704710B500F009F874
:1001B00010BD10B500F006F810BD10B500F003F842
:1001C00010BD704770477047F8B5074600240026F9
:1001D0007D21C9000F480068FFF79CFF784300901D
:1001E0000D48856912E00C488469AC420ED0AC42DF
:1001F00002D2281B861904E007484069001B4019F9
:10020000861925460098864200D300E0EBE700BF40
:10021000F8BD00000000002000E000E010B500F094
:1002200001F810BD704700006A4A90426ED00A790A
:100230001207120F012A06D1120212580B681A4334
:10024000FF2301331A500A791207120F022A31D103
:100250000A7C002A08D0FF22093212580B681A4380
:10026000FF2309331A5007E0FF22093212580B68A6
:100270009A43FF2309331A50F0234A681A40002A90
:1002800008D0FF222D3212580B681A43FF232D335A
:100290001A5007E0FF222D3212580B689A43FF23B1
:1002A0002D331A50FF22013212580B689A43FF2354
:1002B00001331A500A791207120F042A08D1FF22BB
:1002C0000D3212580B681A43FF230D331A5007E002
:1002D000FF220D3212580B689A43FF230D331A5038
:1002E00001231B058A689A4208D1FF222132125845
:1002F0000B681A43FF2321331A5007E0FF222132F3
:1003000012580B689A43FF2321331A500F231B0204
:100310004A681A409A425BD101231B04CA681A40FA
:10032000002A08D0FF22393212580B681A43FF23E3
:1003300039331A5007E0FF22393212580B689A43BA
:10034000FF2339331A5001235B04CA681A40002A7C
:1003500008D0FF223D3212580B681A43FF233D3369
:100360001A5007E0FF223D3212580B689A43FF23D0
:100370003D331A5001239B04CA681A40002A08D052
:10038000FF22313212580B681A43FF2331331A50BF
:1003900007E0FF22313212580B689A43FF233133B2
:1003A0001A500123DB04CA681A40002A08D0FF2231
:1003B000353212580B681A43FF2335331A5007E0C1
:1003C000FF22353212580B689A43FF2335331A50F7
:1003D00070470000400C0240002101600421416090
:1003E00000218160C16001747047000000B585B0D4
:1003F00014216846FFF7ABFE1C2000F0A5F8684604
:10040000FFF7EAFF012069460874022001900020EE
:100410000290012000900248FFF706FF05B000BDE2
:10042000000C024010B500F009F810BD08B500201E
:10043000009000BF00980028FCD008BD704710B5A0
:1004400000F001F810BD704710B500F009F810BDBC
:1004500010B500F006F810BD10B500F003F810BD9F
:1004600070477047704710B500F005F810BD10B523
:1004700000F002F810BD7047704710B500F001F8A9
:1004800010BD704710B500F079F810BD30B50022EE
:100490000023002125480068E02528400446002C60
:1004A00006D0202C22D0402C22D0602C35D131E037
:1004B0001E48C06803252D0428400346002B0AD09F
:1004C00001200004181A08D001252D04401B06D075
:1004D000401B08D105E0164A06E0164A04E0164A19
:1004E00002E0164A00E000BF00BF17E0144A15E022
:1004F0000E4840698105890D12480089884202D161
:100500000122D20305E00F488089884201D14B22A5
:10051000520203E00122D20300E000BF00BF034803
:1005200000684005450F1046E84030BD0018024005
:1005300000093D00808D5B000048E801006CDC0292
:1005400000127A00A00710002021014000290BD0E2
:1005500020220146914308460749496A0122824008
:100560001143054A516206E00349096A01228240AB
:100570001143014A1162704700180240704710B5DC
:1005800000F001F810BD704710B5FFF77FFF01497B
:10059000086010BD0000002010B50D48C06B0D496B
:1005A000C8600D480D49C8620D48C8620846006A17
:1005B000C9148843401809490862FFF7E5FF094854
:1005C00009494861002088610520086110BD0000CC
:1005D00080071000001802405A5A00000000024034
:1005E000A5A50000FFFFFF0000E000E010B500F04F
:1005F00005F810BD10B500F002F810BD7047704747
:1006000002E008C8121F08C1002AFAD170477047DB
:10061000002001E001C1121F002AFBD17047000039
:10062000FFF7E4FE0DE00120064908617D20C000CF
:10063000FFF7CAFD0120034948617D20C000FFF794
:10064000C3FDF0E7000D0240680600000000002036
:1006500004000000000600006C06000004000020FA
:0C066000040400001006000000093D002A
:04000005000000C136
:00000001FF
