:020000040000FA
:1000000010040020D9000000F30000003B050000B0
:1000100000000000000000000000000000000000E0
:10002000000000000000000000000000F7000000D9
:100030000000000000000000F90000008F06000032
:10004000750500007D0500000000000000000000B4
:10005000000000001F03000000000000000000007E
:10006000570500005F050000930500000000000038
:100070000000000000000000F7030000FF03000084
:100080000000000000000000330500000000000038
:1000900000000000000000004D0500008905000080
:1000A0003D02000000000000FD0600000507000002
:1000B000670500000000000029050000070400009B
:1000C0000448854600F04EF80048004789010000CA
:1000D000C046C0461004002009480A4A002100A179
:1000E000814200D902440848026008488047084815
:1000F0000047FEE7FEE7FEE7FEE7FEE7FEE700005B
:10010000000000200000000008ED00E0A90600004B
:10011000C100000030B50B4601460020202201241A
:1001200009E00D46D5409D4205D31D469540491B2B
:100130002546954040191546521E002DF1DC30BD74
:10014000D2B201E00270401C491EFBD2704700226F
:10015000F6E710B513460A4604461946FFF7F0FFC6
:10016000204610BD064C0125064E05E0E36807CC8D
:100170002B430C3C98471034B442F7D3FFF7A4FF4D
:10018000BC070000DC07000010B500F08DFA00F09D
:100190000AFB002010BD000030B502460020002AF6
:1001A00006D0012A0ED0022A19D0032A31D123E029
:1001B0001A4B1B681B091B010C07240F2343174C08
:1001C000236028E0154B1B68FF24E134A3434C0156
:1001D000FF25E1352C402343104C23601BE00F4BDF
:1001E0001B680F24A402A3438C020F25AD022C40F0
:1001F00023430A4C23600EE0084B1B680F24E403E2
:10020000A343CC030F25ED032C402343034C236071
:1002100001E0042000BF00BF30BD000040240040CA
:1002200010B505484068012108430349486006208D
:1002300000F0F0F810BD00000024004010B500F000
:10024000B9F810BD034840680121C90308430149BA
:1002500048607047002400400249496B8143014ACD
:10026000516370478024004001460448006B0840F9
:10027000002801D0012070470020FCE780240040C6
:1002800010B50446144840680121084312494860EB
:100290000A2000F0E7F8A168206808436168084375
:1002A000E16808430D4908400B4949680B4AD243AD
:1002B000114008430849486007484030806880087A
:1002C0008000217C491E8907890F0843024940317B
:1002D0008860002010BD0000002400400C321E0089
:1002E0000146024A88001058704700005024004020
:1002F00003484068012108430149486070470000F5
:10030000C0240040002101600121890441600021D6
:10031000816003210903C16001210161704710B5AB
:1003200000F068F810BD000000B585B014216846E3
:10033000FFF70DFF102000F08FF9FFF771FF6846FF
:10034000FFF7E0FF032080040190002002900C20C2
:10035000009080020390032004906846FFF790FF0E
:100360001348C068042108431149C8600846C068A2
:10037000082108430E49C8600846C0682021084388
:100380000B49C86001210020FFF706FF0221012070
:10039000FFF702FF03210220FFF7FEFEFFF752FFE7
:1003A00001220321182000F087F805B000BD0000ED
:1003B000000D024010B50120FFF756FF002811D0B4
:1003C0000120FFF749FF0020FFF78AFF0649086078
:1003D0000120FFF785FF054908600220FFF780FF35
:1003E0000349086010BD0000040000200800002040
:1003F0000C000020704710B500F009F810BD10B5D2
:1004000000F006F810BD10B500F003F810BD7047FD
:1004100070477047F8B50746002400260E488569E6
:1004200017E00D488469AC4213D0AC4202D2281BBD
:10043000861904E008484069001B401986192546C2
:10044000064907480068FFF765FE7843B04200D8C8
:1004500000E0E6E700BFF8BD00E000E0A086010094
:1004600000000020F8B50746002400267D21C900C1
:100470000F480068FFF74EFE784300900D488569ED
:1004800012E00C488469AC420ED0AC4202D2281B68
:10049000861904E007484069001B40198619254663
:1004A0000098864200D300E0EBE700BFF8BD0000F3
:1004B0000000002000E000E070B504460E4615463E
:1004C0002046002805DBC206D20E01219140144AC5
:1004D000116000BF3146204600F01AF9012D0ED1FF
:1004E0002046002809DB00BF00BFC206D20E012152
:1004F00091400C4A116000BF00BF00BF0FE02046D2
:1005000000280ADBC206D20E01219140054A803242
:100510001160BFF34F8FBFF36F8F00BF00BF70BD7F
:1005200080E200E000E100E010B500F001F810BD4D
:10053000704710B500F009F810BD08B50020009014
:1005400000BF00980028FCD008BD704710B500F02F
:1005500001F810BD704710B500F009F810BD10B5D6
:1005600000F006F810BD10B500F003F810BD70479C
:100570007047704710B500F005F810BD10B500F0D9
:1005800002F810BD7047704710B500F001F810BDBB
:10059000704710B500F07AF810BD000030B50022A9
:1005A0000023002125480068E02528400446002C4F
:1005B00006D0202C22D0402C22D0602C35D131E026
:1005C0001E48C06803252D0428400346002B0AD08E
:1005D00001200004181A08D001252D04401B06D064
:1005E000401B08D105E0164A06E0164A04E0164A08
:1005F00002E0164A00E000BF00BF17E0144A15E011
:100600000E4840698105890D12480089884202D14F
:100610000122D20305E00F488089884201D14B2294
:10062000520203E00122D20300E000BF00BF0348F2
:1006300000684005450F1046E84030BD00180240F4
:1006400000093D00808D5B000048E801006CDC0281
:1006500000127A00A00710002021014000290BD0D1
:1006600020220146914308460749496A01228240F7
:100670001143054A516206E00349096A012282409A
:100680001143014A1162704700180240704710B5CB
:1006900000F001F810BD704710B5FFF77FFF01496A
:1006A000086010BD0000002010B50D48C06B0D495A
:1006B000C8600D480D49C8620D48C8620846006A06
:1006C000C9148843401809490862FFF7E5FF094843
:1006D00009494861002088610520086110BD0000BB
:1006E00080071000001802405A5A00000000024023
:1006F000A5A50000FFFFFF0000E000E010B500F03E
:1007000005F810BD10B500F002F810BD7047704735
:1007100010B5002819DB1A4A03231B02D2188308DC
:100720009B00D2588307DC0EFF23A3409A438B071C
:100730001B0E8407E40EA3401A43114B032424022A
:100740001B198408A4001A5118E00E4A03071B0F56
:10075000083B9B089B00D2588307DC0EFF23A34075
:100760009A438B071B0E8407E40EA3401A43054BE4
:100770000407240F083CA408A4001A5110BD00006F
:1007800000E100E01CED00E002E008C8121F08C113
:10079000002AFAD170477047002001E001C1121F02
:1007A000002AFBD17047FFF7BFFD05E07D20000167
:1007B000FFF758FEFFF79CFDF8E70000DC0700009C
:1007C000000000201000000088070000EC07000077
:1007D00010000020000400009807000000093D0000
:0C07E0000000000000000000000000000D
:04000005000000C136
:00000001FF
