:020000040000FA
:1000000000040020D9000000F3000000F50000000B
:1000100000000000000000000000000000000000E0
:10002000000000000000000000000000F7000000D9
:100030000000000000000000F9000000FB000000CC
:10004000FD000000FD0000000000000000000000B6
:1000500000000000FD0000000000000000000000A3
:10006000FD000000FD000000FD0000000000000099
:100070000000000000000000FD000000FD00000086
:100080000000000000000000FD0000000000000073
:100090000000000000000000FD000000FD00000066
:1000A000FD00000000000000FD000000FD00000059
:1000B000FD00000000000000FD000000FD00000049
:1000C0000448854600F026F8004800473901000042
:1000D000C046C0460004002009480A4A002100A189
:1000E000814200D902440848026008488047084815
:1000F0000047FEE7FEE7FEE7FEE7FEE7FEE700005B
:10010000000000200000000008ED00E049010000B0
:10011000C1000000064C0125064E05E0E36807CC4F
:100120002B430C3C98471034B442F7D3FFF7CCFF75
:1001300098010000A801000010B500F005F800F0DB
:100140002AF8002010BD00000648C06B0649C860B0
:1001500007480649C1620749C162016AC2141143D6
:100160000162704780071000001802405A5A0000D0
:1001700000000240A5A5000002E008C8121F08C147
:10018000002AFAD170477047002001E001C1121F18
:10019000002AFBD17047FEE7A80100000000002004
:0801A0000004000088010000CA
:04000005000000C136
:00000001FF
