S0180000636D5F70676D5F756E6976657273616C2E7372656361
S1138000D0B00020818200008B7D0100937D0100AF
S1138010957D01009D7D0100A57D0100000000000B
S1138020000000000000000000000000AD7D010021
S1138030B57D010000000000BD7D0100C57D01008B
S1138040CD7D0100DB7D0100E97D0100F77D0100AC
S1138050057E0100137E0100217E01002F7E0100B8
S11380603D7E01004B7E0100597E0100677E0100C8
S1138070757E0100837E0100917E01009F7E0100D8
S1138080AD7E0100BB7E0100C97E0100D77E0100E8
S1138090E57E0100F37E0100017F01000F7F0100F6
S11380A01D7F01002B7F0100397F0100477F010004
S11380B0557F0100637F0100717F01007F7F010014
S11380C08D7F01009D7F0100AD7F0100BD7F010018
S11380D0CD7F0100DD7F0100ED7F0100FD7F010008
S11380E00D8001001D8001002D8001003D800100F4
S11380F04D8001005D8001006D8001007D800100E4
S11381008D8001009D800100AD800100BD800100D3
S1138110CD800100DD800100ED800100FD800100C3
S11381200D8101001D8101002D8101003D810100AF
S11381304D8101005D8101006D8101007D8101009F
S11381408D8101009D810100AD810100BD8101008F
S1138150CD810100DD810100ED810100FD8101007F
S11381600D8201001D8201002D8201003D8201006B
S11381704D8201005D8201006D8201007D8201005B
S11381808D8201009D820100AD820100BD8201004B
S1138190CD820100DD820100EB820100F982010041
S11381A0078301001583010023830100318301004B
S11381B03F8301004D8301005B830100698301005B
S11381C0778301008583010093830100A18301006B
S11381D0AF830100BD830100CB830100D98301007B
S11381E0E7830100F5830100038401001184010089
S11381F01F8401002D8401003B8401004984010097
S113820057840100658401007384010081840100A6
S11382108F8401009D840100AB840100B9840100B6
S1138220C7840100D5840100E3840100F1840100C6
S1138230FF8401000D8501001B85010029850100D3
S113824037850100318601008988010031890100E8
S1138250138B01000D0C0400110C0400150C040018
S1138260098C0100418E010031900100D59101007B
S1138270F1920100999401003D96010011970100CB
S1138280014880470148004735F70000190C0400F5
S1138290809A45418E418F804545454949498E8F95
S11382A09092924F994F555559999A9B9C9D9E9F98
S11382B041494F55A5A5A6A7A8A9AAABACADAEAF99
S11382C0B0B1B2B3B4B5B6B7B8B9BABBBCBDBEBF32
S11382D0C0C1C2C3C4C5C6C7C8C9CACBCCCDCECF22
S11382E0D0D1D2D3D4D5D6D7D8D9DADBDCDDDEDF12
S11382F0E0E1E2E3E4E5E6E7E8E9EAEBECEDEEEF02
S1138300F0F1F2F3F4F5F6F7F8F9FAFBFCFDFEFFF1
S1138310592401002D260100812701008528010030
S1138320912801009D210100AD290100652A010069
S1138330712A010081220100080808183F7F3F18B4
S1138340080000001008FFFF01050D1D3D7D3D1DC7
S11383500D050101FFFF00001008FFFF01011139A5
S113836055111111111F0101FFFF0000090800FF41
S1138370017D55555501FF00080800787E79797E06
S11383807800000008080000FE7C3810000000009F
S1138390080800041C9E7C1E1C04000008080081C0
S11383A0FF8919E6800000001008FFFF0101011198
S11383B0397DFF0101010101FFFF00000808FF01F1
S11383C04995A54901FF00000808FF013D41413DD1
S11383D001FF00000408FF818100000004080081FF
S11383E081FF000004087F3E1C0800000408081CEC
S11383F03E7F0000581800060E3E7EFEFCF0E08032
S11384000080C0F0F8FE7E3E1E0602000000FEFE64
S1138410FEFE8080809E9E9E9E808080FEFEFEFEEC
S1138420000000E0F8FCFCFE1E1E0F0F0F0F0E1ED6
S11384303E7E7C787000000000C0E0F0F8FC7E3ED8
S11384403E1F1F1F1F1E3E7EFEFCF8F0E080000052
S113845000000080C3E7FFFFFF3F1F8FC3810000C0
S1138460000000000000E7E7E7E7E7E7E7E7E7E702
S1138470E7E7E7E7E7E7E7E30000000103878F0F9B
S11384801F1F1E1E1E3C3C7C7CF8F8F0E0800000A0
S11384907EFFFFFFFF8100000000000000000000DD
S11384A00000000000000060707C7E7F1F0F070149
S11384B00000030F1F3F7F7C7870400000007F7F27
S11384C07F7F010101010101010101017F7F7F7FA4
S11384D0000000070F1F3F7E7C7878F0F0F0F07802
S11384E0787F3F3F1F0700000003070F1F3F7E7C7C
S11384F07CF8F8F8F8787C7E003F3F1F0F070100F6
S113850006080000000000000000002F000000002A
S11385100700070000147F147F1400242A7F2A1206
S113852000231308646200364955225000000503F5
S1138530000000001C224100000041221C00001425
S1138540083E08140008083E0808000000A0600067
S113855000080808080800006060000000201008F7
S11385600402003E5149453E0000427F4000004263
S113857061514946002141454B31001814127F10C6
S1138580002745454539003C4A49493000017109F5
S1138590050300364949493600064949291E0000A9
S11385A03636000000005636000000081422410050
S11385B00014141414140000412214080002015180
S11385C0090600324959513E007C1211127C007F89
S11385D049494936003E41414122007F4141221C24
S11385E0007F49494941007F09090901003E414989
S11385F0497A007F0808087F0000417F410000207D
S113860040413F01007F08142241007F4040404028
S1138610007F020C027F007F0408107F003E41416E
S1138620413E007F09090906003E4151215E007F59
S1138630091929460046494949310001017F0101D0
S1138640003F4040403F001F2040201F003F403873
S1138650403F0063140814630007087008070061B2
S11386605149454300007F41410000552A552A5590
S1138670000041417F000004020102040040404028
S11386804040000001020400002054545478007F4C
S11386904844443800384444442000384444487F23
S11386A000385454541800087E0901020018A4A488
S11386B0A47C007F080404780000447D400000404E
S11386C080847D00007F102844000000417F40002A
S11386D0007C04180478007C0804047800384444BE
S11386E0443800FC242424180018242418FC007C9A
S11386F00804040800485454542000043F44402013
S1138700003C4040207C001C2040201C003C4030A9
S1138710403C004428102844001CA0A0A07C004435
S113872064544C441414141414140000081000006D
S11387300000000000000000000000000000000035
S113874000F80000000000000033300000000010BA
S11387500C06100C0600000000000000000040C0E1
S11387607840C0784000043F04043F0404000070D3
S113877088FC08300000001820FF211E0000F008CB
S1138780F000E018000000211C031E211E0000F070
S11387900888700000001E212324192721101016B8
S11387A00E000000000000000000000000000000B7
S11387B000E0180402000000000718204000000236
S11387C00418E000000000402018070000004040AA
S11387D080F0804040000202010F0102020000000C
S11387E000F0000000000101011F01010100000070
S11387F000000000000080B07000000000000000D5
S1138800000000000000000101010101010100005D
S113881000000000000000303000000000000000F4
S1138820000080601804006018060100000000E0E9
S113883010080810E000000F102020100F00001096
S113884010F8000000000020203F202000000070ED
S113885008080888700000302824222130000030E5
S11388600888884830000018202020110E000000DD
S1138870C02010F8000000070424243F240000F85E
S11388800888880808000019212020110E0000E043
S1138890108888180000000F112020110E000038E5
S11388A00808C83808000000003F000000000070FD
S11388B0880808887000001C222121221C0000E086
S11388C010080810E0000000312222110F000000FF
S11388D000C0C000000000000030300000000000B4
S11388E00080000000000000806000000000000024
S11388F080402010080000010204081020004040BD
S113890040404040400004040404040404000008FF
S113891010204080000000201008040201000070B4
S113892048080808F0000000003036010000C0309C
S1138930C828E810E0000718272423140B000000BF
S1138940C038E0000000203C23020227382008F849
S1138950888888700000203F202020110E00C0303D
S1138960080808083800071820202010080008F814
S113897008080810E000203F202020100F0008F80D
S11389808888E8081000203F20202320180008F8D9
S11389908888E8081000203F200003000000C03051
S11389A008080838000007182020221E020008F8D2
S11389B008000008F808203F210101213F20000899
S11389C008F8080800000020203F202000000000D4
S11389D00808F8080800C08080807F00000008F8BC
S11389E088C028180800203F20012638200008F8F5
S11389F0080000000000203F20202020300008F85C
S1138A00F800F8F80800203F003F003F200008F875
S1138A1030C00008F808203F200007183F00E0108D
S1138A2008080810E0000F10202020100F0008F89C
S1138A3008080808F000203F210101010000E010AF
S1138A4008080810E0000F18242438504F0008F8D4
S1138A50888888887000203F2000030C3020007034
S1138A608808080838000038202121221C00180832
S1138A7008F8080818000000203F2000000008F84B
S1138A8008000008F808001F202020201F00087894
S1138A90880000C83808000007380E010000F808F4
S1138AA000F80008F800033C0700073C030008181E
S1138AB068808068180820302C03032C3020083884
S1138AC0C800C83808000000203F2000000010083B
S1138AD00808C83808002038262120201800000083
S1138AE000FE020202000000007F40404000000C33
S1138AF030C000000000000000010638C000000281
S1138B000202FE000000004040407F000000000020
S1138B100402020204000000000000000000000043
S1138B20000000000000808080808080808000023F
S1138B30020400000000000000000000000000002B
S1138B408080808000000019242222223F2008F81F
S1138B50008080000000003F112020110E00000062
S1138B60008080800000000E1120202011000000F1
S1138B7000808088F800000E112020103F200000A3
S1138B80808080800000001F2222222213000080A7
S1138B9080F0888888180020203F202000000000F2
S1138BA0808080808000006B94949493600008F827
S1138BB0008080800000203F210000203F200080B2
S1138BC09898000000000020203F202000000000B2
S1138BD000809898000000C08080807F000008F822
S1138BE0000080808000203F24022D3020000008F7
S1138BF008F8000000000020203F202000008080B2
S1138C00808080808000203F20003F20003F8080C3
S1138C10008080800000203F210000203F200000D1
S1138C20808080800000001F202020201F00808082
S1138C3000808000000080FFA12020110E000000B1
S1138C40008080808000000E112020A0FF808080A2
S1138C5080008080800020203F212000010000004F
S1138C608080808080000033242424241900008024
S1138C7080E0808000000000001F20200000808031
S1138C80000000808000001F202020103F208080F2
S1138C9080000080808000010E3008060100808082
S1138CA00080008080800F300C030C300F000080A7
S1138CB08000808080000020312E0E3120008080D2
S1138CC080000080808080818E7018060100008002
S1138CD08080808080000021302C22213000000020
S1138CE00000807C020200000000003F40400000C1
S1138CF00000FF00000000000000FF000000000270
S1138D00027C800000000040403F0000000000069C
S1138D100101020204040000000000000000000041
S1138D200600080000850000080010002C870000E1
S1138D300800080038830000100008004483000085
S1138D401000080058830000090008006C8300002C
S1138D5008000800788300000800080084830000ED
S1138D600800080090830000080008009C830000AD
S1138D7010000800A883000008000800BC8300005D
S1138D8008000800C883000004000800D483000021
S1138D9004000800DC83000004000800E4830000F1
S1138DA004000800EC83000058001800F48300005D
S1138DB04E554C4C00000000484453430000000052
S1138DC050726F6772616D6D657200004D6F6465FE
S1138DD02073657474696E670000000046696C65F1
S1138DE02062726F7773650041626F7574000000D2
S1138DF053454C4543540000454E54455200000031
S1138E0045584954000000005541525400000000E8
S1138E105357440053544152540000005445535492
S1138E2061736463666731323334353637383930C9
S1138E3031323334353631004E6F2076616C6964DB
S1138E4020636F756E740000706C732C20666F72F3
S1138E506D61742055206469736B0000496E69204C
S1138E6066696C65206572726F7200004C6F6720D2
S1138E7066696C65206572726F72000046696C6584
S1138E80206E6F7420666F756E640000202020468B
S1138E9061696C005375636365737300202E2E2E15
S1138EA02E2E2E006E756C6C0000000050726F74D4
S1138EB0656374005265616420466C6173680000E8
S1138EC0577269746520466C617368000000000085
S1138ED0000000000000000001000000B08D000050
S1138EE0B88D000002000000B08D0000C08D0000AD
S1138EF003000000B08D0000CC8D000004000000D1
S1138F00B08D0000DC8D000005000000B08D000075
S1138F10E88D000006000000B08D0000F08D000018
S1138F2007000000B08D0000F88D0000080000006C
S1138F30B08D0000008E000009000000B08D00001C
S1138F40088E00000A000000B08D0000108E0000A2
S1138F500B000000B08D0000148E00000C00000017
S1138F60B08D00001C8E00000D0000000000000009
S1138F70000000000E000000B08D0000388E0000DC
S1138F800F000000B08D0000488E000010000000AB
S1138F90B08D00005C8E000011000000B08D000058
S1138FA06C8E000012000000B08D00007C8E00006A
S1138FB013000000B08D00008C8E0000140000002F
S1138FC0B08D0000948E000015000000B08D0000EC
S1138FD09C8E000016000000A48E0000AC8E0000E1
S1138FE017000000B08D0000B48E000018000000CF
S1138FF0B08D0000C08E00005B2020494E464F5DBE
S11390002025732C25643A200A4E6F746963653AEF
S1139010546865206C6F672066696C6520686173AD
S1139020206265656E20666C757368656420636193
S1139030757365207468652073746F726167652049
S113904069732066756C6C2E0A0D0A006F6C65647A
S113905000000000C1B0010011B101007FAF0100A8
S1139060A1AF01006DAD0100D7AD0100A1B00100B9
S113907091B0010049AE01000000000000000C00A6
S11390808000280000000000000000000000000034
S113909000000000000000000000000000000000CC
S11390A000000000010000000000000000000000BB
S11390B000000000040305190000000000000C007B
S11390C080002800000000000000000000000000F4
S11390D0000000000000000000000000000000008C
S11390E0B490000000000000000000000000000038
S11390F0000000000000000000000C0080002800B8
S1139100000000000000000000000000000000005B
S1139110000000000000000000000000E4DA01008C
S1139120000000000000000000000000000000003B
S1139130181719000000000000000C00800028002F
S1139140000000000000000000000000000000001B
S1139150000000000000000000000000309100004A
S113916000000000000000000000000000000000FB
S11391700000000164000000000000000000000086
S11391800000000000000C00800028007091000026
S113919000000000000000000000000000000000CB
S11391A000000000000000000000000001000000BA
S11391B00000000000000000000000007802002011
S11391C090020020980300201004002028040020AE
S11391D0400400205804002070040020880400206B
S11391E0A0040020A8020020C0020020D802002011
S11391F0F002002008030020200300203803002090
S1139200500300206803002080030020B0030020E6
S1139210C8030020E0030020F8030020C804002055
S1139220D804002088050020D8050020E805002087
S1139230F805002008060020180600202806002053
S113924038060020E8040020F80400200805002067
S113925018050020280500203805002048050020B6
S11392605805002068050020780500209805002096
S1139270A8050020B8050020C805002048060020E5
S113928068060020500700208C080020F008002009
S113929004090020180900202C090020400900209E
S11392A054090020880600209C060020B0060020F7
S11392B0C4060020D8060020EC0600200007002089
S11392C014070020280700203C0700206407002022
S11392D0780700208C07002028080020F8120020BE
S11392E00C130020C0130020241400203814002084
S11392F04C140020601400207414002088140020F2
S11393009C14002020130020D012002034130020CD
S1139310481300205C1300207013002084130020E5
S1139320E412002098130020AC130020D413002072
S1139330E8130020FC1300201014002080090020F2
S113934094090020040F0020CC100020E01000201D
S1139350F4100020081100201C110020EC11002042
S113936000120020A8090020480A0020180B002041
S11393703C0B00200C0C0020AC0C0020D00C002076
S1139380F40C0020C40D0020640E0020A40F002063
S11393901410002084100020A81000205B20204915
S11393A04E464F5D2025732C25643A202D2D2D2DFE
S11393B0737563636565733A2564206572723A2533
S11393C0642D2D2D2D0D0A005B20204552524F5245
S11393D05D2025732C25643A202D2D2D2D73756366
S11393E0636565733A2564206572723A25642D2D90
S11393F02D2D0D0A000000005B2020494E464F5DD4
S11394002025732C25643A202D2D2D2D737563632F
S11394106565733A2564206572723A25642D2D2D95
S11394202D0D0A005B20204552524F525D202573BA
S11394302C25643A202D2D2D2D737563636565737A
S11394403A2564206572723A25642D2D2D2D0D0A5E
S1139450000000005B2020494E464F5D2025732C00
S113946025643A202D2D2D2D737563636565733A3C
S11394702564206572723A25642D2D2D2D0D0A0068
S11394805B20204552524F525D2025732C25643AAF
S1139490202D2D2D2D737563636565733A25642026
S11394A06572723A25642D2D2D2D0D0A00000000E1
S11394B05B2020494E464F5D2025732C25643A20BD
S11394C02D2D2D2D737563636565733A25642065B1
S11394D072723A25642D2D2D2D0D0A005B20204536
S11394E052524F525D2025732C25643A202D2D2D88
S11394F02D737563636565733A2564206572723AEA
S113950025642D2D2D2D0D0A000000005B2020491F
S11395104E464F5D2025732C25643A202D2D2D2D8C
S1139520737563636565733A2564206572723A25C1
S1139530642D2D2D2D0D0A005B20204552524F52D3
S11395405D2025732C25643A202D2D2D2D737563F4
S1139550636565733A2564206572723A25642D2D1E
S11395602D2D0D0A000000005B2020494E464F5D62
S11395702025732C25643A202D2D2D2D73756363BE
S11395806565733A2564206572723A25642D2D2D24
S11395902D0D0A005B20204552524F525D20257349
S11395A02C25643A202D2D2D2D7375636365657309
S11395B03A2564206572723A25642D2D2D2D0D0AED
S11395C0000000005B2020494E464F5D2025732C8F
S11395D025643A202D2D2D2D737563636565733ACB
S11395E02564206572723A25642D2D2D2D0D0A00F7
S11395F05B20204552524F525D2025732C25643A3E
S1139600202D2D2D2D737563636565733A256420B4
S11396106572723A25642D2D2D2D0D0A000000006F
S11396205B2020494E464F5D2025732C25643A204B
S11396302D2D2D2D737563636565733A256420653F
S113964072723A25642D2D2D2D0D0A005B202045C4
S113965052524F525D2025732C25643A202D2D2D16
S11396602D737563636565733A2564206572723A78
S113967025642D2D2D2D0D0A000000005B202049AE
S11396804E464F5D2025732C25643A202D2D2D2D1B
S1139690737563636565733A2564206572723A2550
S11396A0642D2D2D2D0D0A005B20204552524F5262
S11396B05D2025732C25643A202D2D2D2D73756383
S11396C0636565733A2564206572723A25642D2DAD
S11396D02D2D0D0A000000005B2020494E464F5DF1
S11396E02025732C25643A202D2D2D2D737563634D
S11396F06565733A2564206572723A25642D2D2DB3
S11397002D0D0A005B20204552524F525D202573D7
S11397102C25643A202D2D2D2D7375636365657397
S11397203A2564206572723A25642D2D2D2D0D0A7B
S1139730000000005B2020494E464F5D2025732C1D
S113974025643A202D2D2D2D737563636565733A59
S11397502564206572723A25642D2D2D2D0D0A0085
S11397605B20204552524F525D2025732C25643ACC
S1139770202D2D2D2D737563636565733A25642043
S11397806572723A25642D2D2D2D0D0A00000000FE
S11397905B2020494E464F5D2025732C25643A20DA
S11397A02D2D2D2D737563636565733A25642065CE
S11397B072723A25642D2D2D2D0D0A005B20204553
S11397C052524F525D2025732C25643A202D2D2DA5
S11397D02D737563636565733A2564206572723A07
S11397E025642D2D2D2D0D0A000000005B2020493D
S11397F04E464F5D2025732C25643A202D2D2D2DAA
S1139800737563636565733A2564206572723A25DE
S1139810642D2D2D2D0D0A005B20204552524F52F0
S11398205D2025732C25643A202D2D2D2D73756311
S1139830636565733A2564206572723A25642D2D3B
S11398402D2D0D0A000000005B2020494E464F5D7F
S11398502025732C25643A202D2D2D2D73756363DB
S11398606565733A2564206572723A25642D2D2D41
S11398702D0D0A005B20204552524F525D20257366
S11398802C25643A202D2D2D2D7375636365657326
S11398903A2564206572723A25642D2D2D2D0D0A0A
S11398A0000000005B2020494E464F5D2025732CAC
S11398B025643A202D2D2D2D737563636565733AE8
S11398C02564206572723A25642D2D2D2D0D0A0014
S11398D05B20204552524F525D2025732C25643A5B
S11398E0202D2D2D2D737563636565733A256420D2
S11398F06572723A25642D2D2D2D0D0A000000008D
S11399005B2020494E464F5D2025732C25643A2068
S11399102D2D2D2D737563636565733A256420655C
S113992072723A25642D2D2D2D0D0A005B202045E1
S113993052524F525D2025732C25643A202D2D2D33
S11399402D737563636565733A2564206572723A95
S113995025642D2D2D2D0D0A000000005B202049CB
S11399604E464F5D2025732C25643A202D2D2D2D38
S1139970737563636565733A2564206572723A256D
S1139980642D2D2D2D0D0A005B20204552524F527F
S11399905D2025732C25643A202D2D2D2D737563A0
S11399A0636565733A2564206572723A25642D2DCA
S11399B02D2D0D0A000000005B2020494E464F5D0E
S11399C02025732C25643A202D2D2D2D737563636A
S11399D06565733A2564206572723A25642D2D2DD0
S11399E02D0D0A005B20204552524F525D202573F5
S11399F02C25643A202D2D2D2D73756363656573B5
S1139A003A2564206572723A25642D2D2D2D0D0A98
S1139A10000000005B2020494E464F5D2025732C3A
S1139A2025643A202D2D2D2D737563636565733A76
S1139A302564206572723A25642D2D2D2D0D0A00A2
S1139A405B20204552524F525D2025732C25643AE9
S1139A50202D2D2D2D737563636565733A25642060
S1139A606572723A25642D2D2D2D0D0A000000001B
S1139A705B2020494E464F5D2025732C25643A20F7
S1139A802D2D2D2D737563636565733A25642065EB
S1139A9072723A25642D2D2D2D0D0A005B20204570
S1139AA052524F525D2025732C25643A202D2D2DC2
S1139AB02D737563636565733A2564206572723A24
S1139AC025642D2D2D2D0D0A0000000050726F63AA
S1139AD05F496D706C365F456E64436865636B0007
S1139AE05B2020494E464F5D2025732C25643A2087
S1139AF072657472792E0D0A000000005B20204903
S1139B004E464F5D2025732C25643A202D2D2D2D96
S1139B10737563636565733A2564206572723A25CB
S1139B20642D2D2D2D0D0A005B20204552524F52DD
S1139B305D2025732C25643A202D2D2D2D737563FE
S1139B40636565733A2564206572723A25642D2D28
S1139B502D2D0D0A000000005B2020494E464F5D6C
S1139B602025732C25643A202D2D2D2D73756363C8
S1139B706565733A2564206572723A25642D2D2D2E
S1139B802D0D0A005B20204552524F525D20257353
S1139B902C25643A202D2D2D2D7375636365657313
S1139BA03A2564206572723A25642D2D2D2D0D0AF7
S1139BB0000000005B2020494E464F5D2025732C99
S1139BC025643A202D2D2D2D737563636565733AD5
S1139BD02564206572723A25642D2D2D2D0D0A0001
S1139BE05B20204552524F525D2025732C25643A48
S1139BF0202D2D2D2D737563636565733A256420BF
S1139C006572723A25642D2D2D2D0D0A0000000079
S1139C105B2020494E464F5D2025732C25643A2055
S1139C202D2D2D2D737563636565733A2564206549
S1139C3072723A25642D2D2D2D0D0A005B202045CE
S1139C4052524F525D2025732C25643A202D2D2D20
S1139C502D737563636565733A2564206572723A82
S1139C6025642D2D2D2D0D0A000000005B202045BC
S1139C7052524F525D2025732C25643A207561722F
S1139C8074436D64536574426175647261746520D4
S1139C906661696C65642E656E526574203D20258D
S1139CA0640D0A005B20204552524F525D202573FB
S1139CB02C25643A2075617274436D645365744253
S1139CC0617564726174652E7533324261756452D4
S1139CD0617465203D2025780D0A00005B20204535
S1139CE052524F525D2025732C25643A20756172BF
S1139CF074436D6453657442617564726174652064
S1139D006661696C65642E656E526574203D20251C
S1139D10640D0A005B20204552524F525D2025738A
S1139D202C25643A2075617274436D6453657442E2
S1139D30617564726174652E753332426175645263
S1139D40617465203D2025780D0A00005B202045C4
S1139D5052524F525D2025732C25643A2072656C53
S1139D60656173652073656375726974790D0A00A2
S1139D705B20204552524F525D2025732C25643AB6
S1139D802072656C656173652073656375726974AF
S1139D90790D0A005B20204552524F525D202573F5
S1139DA02C25643A2072656C656173652073656364
S1139DB075726974790D0A005B20204552524F5226
S1139DC05D2025732C25643A2072656C656173658A
S1139DD02073656375726974790D0A005B202049EC
S1139DE04E464F5D2025732C25643A2063686563D5
S1139DF06B20626C616E6B2066696E697368656462
S1139E002E0D0A005B20204552524F525D202573CF
S1139E102C25643A20416464726573733A30782562
S1139E2058206973206E6F6E2D626C616E6B2E0DFF
S1139E300A0000005B2020494E464F5D2025732C0C
S1139E4025643A20636865636B73756D207375636D
S1139E506365656465642E0D0A0000005B2020497B
S1139E604E464F5D2025732C25643A206368656354
S1139E706B202066696E69736865642E0D0A0000A4
S1139E805B20204552524F525D2025732C25643AA5
S1139E9020416464726573733A307825582069737D
S1139EA020696E76616C69642E0D0A005B2020497E
S1139EB04E464F5D2025732C25643A206368656304
S1139EC06B20626C616E6B2066696E697368656491
S1139ED02E0D0A005B20204552524F525D202573FF
S1139EE02C25643A20416464726573733A30782592
S1139EF058206973206E6F6E2D626C616E6B2E0D2F
S1139F000A0000005B2020494E464F5D2025732C3B
S1139F1025643A20636865636B73756D207375639C
S1139F206365656465642E0D0A0000005B202049AA
S1139F304E464F5D2025732C25643A206368656383
S1139F406B20626C616E6B2066696E697368656410
S1139F502E0D0A005B20204552524F525D2025737E
S1139F602C25643A20416464726573733A30782511
S1139F7058206973206E6F6E2D626C616E6B2E0DAE
S1139F800A0000005B20204552524F525D20257389
S1139F902C25643A20636865636B73756D20636F69
S1139FA06D6D616E64206661696C65642E0D0A00D6
S1139FB05B2020494E464F5D2025732C25643A20B2
S1139FC0636865636B20626C616E6B2066696E69A1
S1139FD0736865642E0D0A005B20204552524F526F
S1139FE05D2025732C25643A204164647265737383
S1139FF03A30782558206973206E6F6E2D626C613B
S113A0006E6B2E0D0A0000005B20204552524F5209
S113A0105D2025732C25643A20636865636B737532
S113A0206D20636F6D6D616E64206661696C65643B
S113A0302E0D0A005B2020494E464F5D2025732CCF
S113A04025643A20636865636B20626C616E6B20E3
S113A05066696E69736865642E0D0A005B2020458D
S113A06052524F525D2025732C25643A204164647A
S113A070726573733A30782558206973206E6F6E59
S113A0802D626C616E6B2E0D0A0000005B2020496E
S113A0904E464F5D2025732C25643A206368656322
S113A0A06B73756D207375636365656465642E0DEC
S113A0B00A0000005B2020494E464F5D2025732C8A
S113A0C025643A20636865636B20626C616E6B2063
S113A0D066696E69736865642E0D0A005B2020450D
S113A0E052524F525D2025732C25643A20416464FA
S113A0F0726573733A30782558206973206E6F6ED9
S113A1002D626C616E6B2E0D0A0000005B202045F1
S113A11052524F525D2025732C25643A20636865A2
S113A120636B73756D20636F6D6D616E6420666122
S113A130696C65642E0D0A005B2020494E464F5D14
S113A1402025732C25643A20636865636B20626C58
S113A150616E6B2066696E69736865642E0D0A0012
S113A1605B20204552524F525D2025732C25643AC2
S113A17020416464726573733A307825582069739A
S113A180206E6F6E2D626C616E6B2E0D0A000000E6
S113A1905B20204552524F525D2025732C25643A92
S113A1A020636865636B73756D20636F6D6D616E9D
S113A1B064206661696C65642E0D0A005B20204989
S113A1C04E464F5D2025732C25643A2063686563F1
S113A1D06B20626C616E6B2066696E69736865647E
S113A1E02E0D0A005B20204552524F525D202573EC
S113A1F02C25643A20416464726573733A3078257F
S113A20058206973206E6F6E2D626C616E6B2E0D1B
S113A2100A0000005B2020494E464F5D2025732C28
S113A22025643A20636865636B73756D2073756389
S113A2306365656465642E0D0A0000005B20204997
S113A2404E464F5D2025732C25643A206368656370
S113A2506B20626C616E6B2066696E6973686564FD
S113A2602E0D0A005B20204552524F525D2025736B
S113A2702C25643A20416464726573733A307825FE
S113A28058206973206E6F6E2D626C616E6B2E0D9B
S113A2900A0000005B2020494E464F5D2025732CA8
S113A2A025643A20636865636B73756D2073756309
S113A2B06365656465642E0D0A0000005B20204917
S113A2C04E464F5D2025732C25643A2063686563F0
S113A2D06B20626C616E6B2066696E69736865647D
S113A2E02E0D0A005B20204552524F525D202573EB
S113A2F02C25643A20416464726573733A3078257E
S113A30058206973206E6F6E2D626C616E6B2E0D1A
S113A3100A0000005B20204552524F525D202573F5
S113A3202C25643A20636865636B73756D20636FD5
S113A3306D6D616E64206661696C65642E0D0A0042
S113A3405B2020494E464F5D2025732C25643A201E
S113A350636865636B20626C616E6B2066696E690D
S113A360736865642E0D0A005B20204552524F52DB
S113A3705D2025732C25643A2041646472657373EF
S113A3803A30782558206973206E6F6E2D626C61A7
S113A3906E6B2E0D0A0000005B20204552524F5276
S113A3A05D2025732C25643A20636865636B73759F
S113A3B06D20636F6D6D616E64206661696C6564A8
S113A3C02E0D0A005B2020494E464F5D2025732C3C
S113A3D025643A20636865636B20626C616E6B2050
S113A3E066696E69736865642E0D0A005B202045FA
S113A3F052524F525D2025732C25643A20416464E7
S113A400726573733A30782558206973206E6F6EC5
S113A4102D626C616E6B2E0D0A0000005B202045DE
S113A42052524F525D2025732C25643A206368658F
S113A430636B73756D20636F6D6D616E642066610F
S113A440696C65642E0D0A005B2020494E464F5D01
S113A4502025732C25643A20636865636B20626C45
S113A460616E6B2066696E69736865642E0D0A00FF
S113A4705B20204552524F525D2025732C25643AAF
S113A48020416464726573733A3078255820697387
S113A490206E6F6E2D626C616E6B2E0D0A000000D3
S113A4A05B20204552524F525D2025732C25643A7F
S113A4B020636865636B73756D20636F6D6D616E8A
S113A4C064206661696C65642E0D0A005B20204976
S113A4D04E464F5D2025732C25643A2063686563DE
S113A4E06B20626C616E6B2066696E69736865646B
S113A4F02E0D0A005B20204552524F525D202573D9
S113A5002C25643A20416464726573733A3078256B
S113A51058206973206E6F6E2D626C616E6B2E0D08
S113A5200A0000005B20204552524F525D202573E3
S113A5302C25643A20636865636B73756D20636FC3
S113A5406D6D616E64206661696C65642E0D0A0030
S113A5505B2020494E464F5D2025732C25643A200C
S113A560636865636B20626C616E6B2066696E69FB
S113A570736865642E0D0A005B20204552524F52C9
S113A5805D2025732C25643A2041646472657373DD
S113A5903A30782558206973206E6F6E2D626C6195
S113A5A06E6B2E0D0A0000005B20204552524F5264
S113A5B05D2025732C25643A20636865636B73758D
S113A5C06D20636F6D6D616E64206661696C656496
S113A5D02E0D0A005B2020494E464F5D2025732C2A
S113A5E025643A20636865636B20626C616E6B203E
S113A5F066696E69736865642E0D0A005B202045E8
S113A60052524F525D2025732C25643A20416464D4
S113A610726573733A30782558206973206E6F6EB3
S113A6202D626C616E6B2E0D0A0000005B202049C8
S113A6304E464F5D2025732C25643A20636865637C
S113A6406B73756D207375636365656465642E0D46
S113A6500A0000005B2020494E464F5D2025732CE4
S113A66025643A20636865636B20626C616E6B20BD
S113A67066696E69736865642E0D0A005B20204567
S113A68052524F525D2025732C25643A2041646454
S113A690726573733A30782558206973206E6F6E33
S113A6A02D626C616E6B2E0D0A0000005B20204948
S113A6B04E464F5D2025732C25643A2063686563FC
S113A6C06B73756D207375636365656465642E0DC6
S113A6D00A0000005B2020494E464F5D2025732C64
S113A6E025643A20636865636B20626C616E6B203D
S113A6F066696E69736865642E0D0A005B202045E7
S113A70052524F525D2025732C25643A20416464D3
S113A710726573733A30782558206973206E6F6EB2
S113A7202D626C616E6B2E0D0A0000005B202049C7
S113A7304E464F5D2025732C25643A20636865637B
S113A7406B73756D207375636365656465642E0D45
S113A7500A0000005B2020494E464F5D2025732CE3
S113A76025643A20636865636B20626C616E6B20BC
S113A77066696E69736865642E0D0A005B20204566
S113A78052524F525D2025732C25643A2041646453
S113A790726573733A30782558206973206E6F6E32
S113A7A02D626C616E6B2E0D0A0000005B20204947
S113A7B04E464F5D2025732C25643A2063686563FB
S113A7C06B73756D207375636365656465642E0DC5
S113A7D00A0000005B2020494E464F5D2025732C63
S113A7E025643A20636865636B20626C616E6B203C
S113A7F066696E69736865642E0D0A005B202045E6
S113A80052524F525D2025732C25643A20416464D2
S113A810726573733A30782558206973206E6F6EB1
S113A8202D626C616E6B2E0D0A0000005B202049C6
S113A8304E464F5D2025732C25643A20636865637A
S113A8406B73756D207375636365656465642E0D44
S113A8500A0000005B2020494E464F5D2025732CE2
S113A86025643A20636865636B20626C616E6B20BB
S113A87066696E69736865642E0D0A005B20204565
S113A88052524F525D2025732C25643A2041646452
S113A890726573733A30782558206973206E6F6E31
S113A8A02D626C616E6B2E0D0A0000005B20204946
S113A8B04E464F5D2025732C25643A2063686563FA
S113A8C06B73756D207375636365656465642E0DC4
S113A8D00A0000005B2020494E464F5D2025732C62
S113A8E025643A20636865636B20626C616E6B203B
S113A8F066696E69736865642E0D0A005B202045E5
S113A90052524F525D2025732C25643A20416464D1
S113A910726573733A30782558206973206E6F6EB0
S113A9202D626C616E6B2E0D0A0000005B202045C9
S113A93052524F525D2025732C25643A206368657A
S113A940636B73756D20636F6D6D616E64206661FA
S113A950696C65642E0D0A005B2020494E464F5DEC
S113A9602025732C25643A20636865636B20626C30
S113A970616E6B2066696E69736865642E0D0A00EA
S113A9805B20204552524F525D2025732C25643A9A
S113A99020416464726573733A3078255820697372
S113A9A0206E6F6E2D626C616E6B2E0D0A000000BE
S113A9B05B2020494E464F5D2025732C25643A20A8
S113A9C0636865636B73756D207375636365656434
S113A9D065642E0D0A0000005B2020494E464F5D41
S113A9E02025732C25643A20636865636B20626CB0
S113A9F0616E6B2066696E69736865642E0D0A006A
S113AA005B20204552524F525D2025732C25643A19
S113AA1020416464726573733A30782558206973F1
S113AA20206E6F6E2D626C616E6B2E0D0A0000003D
S113AA305B20204552524F525D2025732C25643AE9
S113AA4020636865636B73756D20636F6D6D616EF4
S113AA5064206661696C65642E0D0A005461726736
S113AA606574506F77657200414553456E63727922
S113AA70707400004D4355456E6372797074000024
S113AA804F5450005265736574000000437573742D
S113AA906F6D697A6564000057726974654C6F6301
S113AAA06B0000004475706C6578506172616D00D4
S113AAB048616C664475706C657800004265657029
S113AAC0696E67005370656564696E670000000015
S113AAD040290100212901004C29010021290100FC
S113AAE058290100212901006429010021290100BC
S113AAF07429010021290100842901002129010070
S113AB004C6576656C0000004E6F4C6F670000006A
S113AB104572726F72000000496E666F000000009B
S113AB205761726E696E6700446562756700000064
S113AB30E0250100F1240100E825010003250100BE
S113AB40F02501001F250100F8250100432501001F
S113AB5000260100692501000C260100A52501003D
S113AB601C260100BB25010024270100AD2601009D
S113AB7034270100BF26010044270100E12601001B
S113AB8050270100F5260100602701000F2701006E
S113AB903C2201001D220100442201001D2201006B
S113ABA0502201001D2201005C2201001D2201002F
S113ABB0682201001D22010011000000270000008E
S113ABC0000000002300000000000000000000005E
S113ABD00C000500020001000000000000C201009A
S113ABE090D0030020A10700B0710B00000000000A
S113ABF000000000C700FC00E900E200E400E000FF
S113AC00E500E700EA00EB00E800EF00EE00EC00EE
S113AC10C400C500C900E600C600F400F600F20056
S113AC20FB00F900FF00D600DC00A200A300A50091
S113AC30A7209201E100ED00F300FA00F100D10039
S113AC40AA00BA00BF001023AC00BD00BC00A100E4
S113AC50AB00BB009125922593250225242561256F
S113AC606225562555256325512557255D255C25E7
S113AC705B251025142534252C251C2500253C2571
S113AC805E255F255A2554256925662560255025AE
S113AC906C25672568256425652559255825522581
S113ACA053256B256A2518250C25882584258C2594
S113ACB090258025B103DF009303C003A303C303DE
S113ACC0B500C403A6039803A903B4031E22C60354
S113ACD0B50329226122B1006522642220232123A5
S113ACE0F7004822B0001922B7001A227F20B200D0
S113ACF0A025A00061001A03E0001703F800070371
S113AD00FF00010078010001300132010601390120
S113AD1010014A012E017901060180014D00430210
S113AD2081018201820184018401860187018701F6
S113AD3089018A018B018B018D018E018F019001A4
S113AD409101910193019401F601960197019801F3
S113AD5098013D029B019C019D0120029F01A001DD
S113AD60A001A201A201A401A401A601A701A701B7
S113AD70A901AA01AB01AC01AC01AE01AF01AF0165
S113AD80B101B201B301B301B501B501B701B80115
S113AD90B801BA01BB01BC01BC01BE01F701C0018D
S113ADA0C101C201C301C401C501C401C701C80175
S113ADB0C701CA01CB01CA01CD011001DD010100A7
S113ADC08E01DE011201F3010300F101F401F4012B
S113ADD0F8012801220212013A020900652C3B0203
S113ADE03B023D02662C3F02400241024102460200
S113ADF00A015302400081018601550289018A013A
S113AE0058028F015A0290015C025D025E025F02E9
S113AE1093016102620294016402650266026702A0
S113AE20970196016A02622C6C026D026E029C010B
S113AE30700271029D01730274029F01760277020F
S113AE40780279027A027B027C02642C7E027F0201
S113AE50A60181028202A901840285028602870278
S113AE60AE014402B101B20145028D028E028F028D
S113AE7090029102B7017B030300FD03FE03FF036D
S113AE80AC0304008603880389038A03B103110316
S113AE90C2030200A303A303C4030803CC030300F7
S113AEA08C038E038F03D8031801F2030A00F903FD
S113AEB0F303F403F503F603F703F703F903FA03C3
S113AEC0FA033004200350041007600422018A04AA
S113AED03601C1040E01CF040100C004D0044401B2
S113AEE061052604000000007D1D0100632C001E86
S113AEF09601A01E5A01001F0806101F0606201FF7
S113AF000806301F0806401F0606511F0700591F78
S113AF10521F5B1F541F5D1F561F5F1F601F0806D3
S113AF20701F0E00BA1FBB1FC81FC91FCA1FCB1F2B
S113AF30DA1FDB1FF81FF91FEA1FEB1FFA1FFB1FA5
S113AF40801F0806901F0806A01F0806B01F0400F3
S113AF50B81FB91FB21FBC1FCC1F0100C31FD01FD5
S113AF600206E01F0206E51F0100EC1FF21F0100AC
S113AF70FC1F4E21010032217021100284210100A6
S113AF808321D0241A05302C2F04602C0201672C55
S113AF900601752C0201802C6401002D260841FF56
S113AFA01A0300000000000300808300000000007A
S113AFB00000000000060000000000000080020203
S113AFC02000000048445343204D4355205350492A
S113AFD020466C617368204469736B20312E3020E5
S113AFE00102080000000000000000000000000052
S113AFF000002115110E0D0C0B0B0A0A0909090991
S113B00009080808080808080707070707070707C3
S113B010070707070700000030313233343536376D
S113B02038396162636465666768696A6B6C6D6E02
S113B0306F707172737475767778797A0000000096
S113B04010B501214FF4801000F038F816480021A3
S113B05000220023002480E81E00BDE810401022D6
S113B060124900F05DB800002DE9F04104460D4698
S113B070164600BF0EA73B223946304600F0A4F81E
S113B08080464346084A3146204600F0DFF83246FF
S113B0904146284600F044F839464046BDE8F041B0
S113B0A03E2200F09DB80000EC9E0020EC1B040042
S113B0B0416573446563727970740000DFF84C2055
S113B0C0DFF84C301361012907BF116821EA000041
S113B0D0136818431060DFF83C0010617047DFF814
S113B0E03820012907BF116821EA000013681843BA
S113B0F010607047DFF82420012907BF116821EA96
S113B100000013681843106070470000008004407A
S113B1100100A5A50000A5A5048004400880044002
S113B12062B38B0708D0521E11F8013B00F8013BB3
S113B13000F024808B07F6D1830740F0208000BF05
S113B140103A07D330B4B1E83810103AA0E83810F8
S113B150F9D230BC530724BFB1E80810A0E80810A6
S113B16044BF51F8043B40F8043BD20724BF31F8F4
S113B170022B20F8022B44BF0B7803707047121F78
S113B18017D35B0009D151F8043B20F8023B1B0C98
S113B190121F20F8023BF6D20BE051F8043B00F8F2
S113B1A0013B1B0A20F8023B1B0C121F00F8013B59
S113B1B0F3D238BF121D521E24BF11F8013B00F810
S113B1C0013BF8D87047110080B500F0E7F8084952
S113B1D00A684B68521C0A60934238BF4A6002BD39
S113B1E028B103490A68521E0A6001F0E1BA7047A7
S113B1F064A0002081B00021009144F2A01206E076
S113B200401E009200994B1E00290093FAD1002899
S113B210F6D101B0704781B00021009107E0102100
S113B220401E009100994A1E00290092FAD100287C
S113B230F5D101B070470246002021B112F8013B5C
S113B240C018491EFAD180B270472C002DE9FC4188
S113B250804604270C46B8F1000F18BF002C1D4689
S113B26035D0002A18BF002D31D014F00F0F08BFBD
S113B27018F003002BD112F0030108BF15F00300EE
S113B28025D1104600F033F8204E00203060092705
S113B290404600F01FF801217160316000210091E7
S113B2A002E00098401C00900099B1F5117F0CD287
S113B2B030680028F5D1284600F00EF80027103C2D
S113B2C01035002C08F11008DFD10020306038461A
S113B2D0BDE8F6810C490BE00B490A6802604B6833
S113B2E043608A688260C96840F80C1F7047084947
S113B2F002680A6043684B6082688A600C300068A8
S113B300C860704700000000108000400000104238
S113B3102080004000F5E0700268914203D3436846
S113B3201A44914202D380680028F5D17047184925
S113B330086880B94FF4805048604FF480324FF071
S113B340FF30C86008610420124B8A604861C3F86A
S113B350BC01114808600120704701F1080313F093
S113B360070F0EBF0023C3F1080303F007031944BA
S113B370D21A8161C26042F001034B60091D4FF093
S113B380280C41F802C0024A1369C36170470000E7
S113B390F89D0020088E00206859883C2DE9F84F5C
S113B3A084B00646AFF30080F52E1E4D80F00F8268
S113B3B00B2E31BF10260B36F608F6002868F40869
S113B3C0E04010F0030F4AD0C04300F0010004191C
S113B3D005F1280000EBC408E700D8F8086070689D
S113B3E0C008C000B84218BF01F0E4F9D6F80890CC
S113B3F0464508BF01F0DEF94E4508BF01F0DAF911
S113B4007068C008C000B84218BF01F0D3F9C8453D
S113B4100AD12868012101FA04F420EA04042C600A
S113B42010E000BF088E00202869814508D3D9F8B0
S113B4300C10B14204D1C8F80890C9F80C8001E09E
S113B44001F0B8F947F00300311D7060301DCA598E
S113B45042F00102C25106F1080800F010BFA968C9
S113B460B14280F09F83002800F0A2804FF00108D1
S113B47008FA04F1490000FA04F4484201430C407C
S113B48060420440641E200B00F01000C4406109B7
S113B49001F00801CC40A20802F00402D440630881
S113B4A003F002030818DC401018C4F3400718180E
S113B4B03818FC40241805F1280000EBC40AE70002
S113B4C0DAF80890D9F80400C008C000B84218BFE0
S113B4D001F070F9D9F808B0D14508BF01F06AF954
S113B4E0D94508BF01F066F9D9F80400C008C000C6
S113B4F0B84218BF01F05EF9DA4506D1286808FAA7
S113B50004F420EA04042C600DE029698B4508D377
S113B510DBF80C00484504D1CAF808B0CBF80CA0FD
S113B52001E001F047F9BF1B46F0030009F10402F2
S113B530C9F8040047F00101915109EB0602019298
S113B540D751AC684FEAD40ABAF11F0F88BF01F093
S113B55031F934B3CDF800A005F128006E6900EB91
S113B560CA0AD346102C38BF01F024F92968009880
S113B57021FA00F2D30704D408FA00F00843286043
S113B58007E0DAF80800296988422CBF834601F0F5
S113B59011F9CAF80860CBF80C60C6F808B0C6F810
S113B5A00CA0AF6009F108080198686100F067BE5B
S113B5B06868002800F0178341420840401E010BD0
S113B5C001F01001C840420902F00802D04083088B
S113B5D003F00403D840440804F002045118E04086
S113B5E05918C0F34007611805F598787918F840A0
S113B5F0401858F820104868C008C0008A46A0EBDC
S113B600060B08E001464868C008C000801B584586
S113B6103CBF83468A4608690028F3D1496900295A
S113B620F1D128698245C0F0CF80DAF80410C90846
S113B63006EB0B09C900494518BF01F0BBF80AEB3A
S113B64006008245019080F0BF80DAF80C40DAF8F9
S113B650187054450DD0DAF808002969884223D3BC
S113B660C268524504BFA16851451DD1C460A060A1
S113B6701CE00AF114010C6834B90AF110010C68D9
S113B680A4B101E011460C6804F11402106800280A
S113B69002BF04F1100210680028F3D12869814226
S113B6A002D300220A6001E001F084F8002F34D0B4
S113B6B0DAF81C0008EB800001688A4509D10460AF
S113B6C094B9DAF81C0069680122824091436960E8
S113B6D023E02869874205D33969514514BF7C6149
S113B6E03C6101E001F066F8BCB129698C4212D3D7
S113B6F0A761DAF8100028B1884226BF206184616E
S113B70001F058F8DAF8140038B12969884202D3F4
S113B7106061846101E001F04DF8BBF1100F0ED2BD
S113B72049F003000AF10401CAF804000AF1040014
S113B73051F8092042F0010240F809203EE046F0A9
S113B74003010AF10402CAF804104BF001009051FD
S113B750019941F80BB0A8680090C4081F2C88BF59
S113B76001F028F8009828B305F1280000996F69C2
S113B77000EBC408C146102938BF01F01BF8286843
S113B78020FA04F1CA0705D4012101FA04F40443A0
S113B7902C6007E0D8F80800296988422CBF81464C
S113B7A001F008F8C8F80870C9F80C70C7F80890D8
S113B7B0C7F80C80C5F808B0019868611AF1080848
S113B7C000F0F08100F05BBD00F0F4FFEAE116F157
S113B7D0400F28BF4FF0FF3680F0E4810B36F608A7
S113B7E06B68F600002B00F0DD810027300AC6F1FB
S113B7F0000908BF002423D0B0F5803F28BF1F24D0
S113B8001ED2A0F58071090C01F008018840A0F552
S113B8108052120C02F004029040A0F58044240CE3
S113B820C1F10E0104F00204891A091BA04001EBC6
S113B830D031C81D26FA00F404F0010404EB4104DD
S113B84005F5987858F8240030B31F2C0FBFB44680
S113B8504FEA540CCCF1190C06FA0CFCBE464946CE
S113B86001E04FEA4C0C4268D208D200921B8A4293
S113B87002D2110007460CD0426910304FEADC793D
S113B88050F82900002A1CBF824296460028E8D1BD
S113B89070468946A8BBB7BB012101FA04F46400D1
S113B8A060420443234000F07D81584203405B1E04
S113B8B0180B00F01000C340590901F00801CB40F7
S113B8C09A0802F00402D3405C0804F00204081849
S113B8D0E3401018C3F3400C2018604423FA0CF31F
S113B8E01B1858F823000CE008464168C908C90031
S113B8F0891B49453CBF8946074601690029F3D1A4
S113B90040690028F1D1002F00F04C81A868801B09
S113B910814580F0478129698F42FFF455AF7868EB
S113B920C008C00006EB0901884218BF00F042FFBE
S113B93007EB060B5F45BFF447AFFC68D7F818A0C8
S113B940BC420CD0B8682969884223D3C268BA4281
S113B95004BFA168B9421DD1C460A0601CE007F116
S113B96014010C6834B907F110010C68A4B101E0AA
S113B97011460C6804F114021068002802BF04F197
S113B980100210680028F3D12869814202D30022F2
S113B9900A6001E000F00EFFBAF1000F34D0F8693C
S113B9A008EB800001688F4208D10460A4B9F869EB
S113B9B06968012282409143696025E028698245D3
S113B9C008D3DAF81010B94214BFCAF81440CAF800
S113B9D0104001E000F0EEFEB4B129698C4211D3AD
S113B9E0C4F818A0386928B1884226BF2061846150
S113B9F000F0E0FE786938B12969884202D36061B9
S113BA00846101E000F0D6FEB9F1100F0CD2B1440C
S113BA1049F00300391D7860381D51F8092042F0BF
S113BA20010240F80920B9E046F003013A1D7960AB
S113BA3049F0010090514FEAD9004BF809901F28B2
S113BA4022D805F1280101EBC004296821FA00F28B
S113BA50D307A04605D4012202FA00F00843286067
S113BA6006E0A068296988422CBF804600F0A2FE47
S113BA70C4F808B007F10800C8F80CB040F8068014
S113BA8007F10C018C5189E05FEA192008BF0021FD
S113BA9023D0B0F5803F28BF1F211ED2A0F58072AD
S113BAA0120C02F008029040A0F58051090C01F03C
S113BAB004018840A0F580431B0CC2F10E0203F080
S113BAC00203521AD21A984002EBD032D01D29FA3E
S113BAD000F101F0010101EB420107F11403CBF87D
S113BAE01C1000229A5107F1100308EB81009A51AF
S113BAF06A6822FA01F3DC0711D4012303FA01F185
S113BB0011436960C0F800B0CBF8180007F10801D0
S113BB1007F10C0040F806B041F806B03EE00268B8
S113BB201F291DBF4908C1F1190109FA01F149464C
S113BB3000E002465068C008C000484518D002F131
S113BB401003C80F03EB8003490018680028F0D1E4
S113BB502869834220D3C3F800B007F10C01CBF865
S113BB60182041F806B007F1080040F806B015E0C7
S113BB70296990688A4228BF88420DD3C0F80CB066
S113BB8007F10801C2F808B0885107F10C0082518E
S113BB900022CBF8182001E000F00CFE17F1080891
S113BBA040F06D83A868B0421DD3811B6A691029D7
S113BBB00AD390196861A96041F0010343604150C0
S113BBC046F0030656600BE00021A9606961131D6D
S113BBD040F003015160111D1C5844F001040C5045
S113BBE002F108084BE3E8688642C0F03883DFF8C6
S113BBF0B89BD9F8000008B9FFF799FBD9F80810E9
S113BC0088192F30491E20EA01018E4280F03583C5
S113BC1005F5D877B86838B13A6889188A4280F04F
S113BC202C838842C0F0298300F0C8FD00281CBF83
S113BC30D0F8008010F1010F00F01F8339687A6892
S113BC40414439608A4238BF7960AC6904BB2969D0
S113BC5009B1884200D2286100213861C7F81480F4
S113BC60F9614FF0FF31D9F800206A62296205F1C9
S113BC7028020021D260926002F108045461146128
S113BC80891C10321F29F5D9A8F1280201461DE0AC
S113BC9005F5E0710A46814600E09268D2B1106869
S113BCA0536803449945F8D1107B030712D41368F1
S113BCB09C420FD3D2F804C063449C420AD2C444C9
S113BCC0C2F804C02146E86808EB00022846FFF7E2
S113BCD044FBC1E22869814538BFC5F8109009EBDF
S113BCE0080000E08968002900F0BD810A688242EA
S113BCF0F8D1087B020700F1B6810868C1F800900A
S113BD004A6842444A6009F1080111F0070F08BF6C
S113BD10CDF8049006D0C1F1080101F0070109EB48
S113BD200102019200F1080111F0070F04D0C1F1E2
S113BD30080101F00701084480460198A8EB0001BE
S113BD408419A1EB060B274646F0030646604745D7
S113BD5028BF00F02FFD98F80400C10758BF00F079
S113BD6029FDBBF1100F38BF00F024FDA869804500
S113BD7008D1E9688B44C5F80CB0AF614BF0010001
S113BD8078606CE1686980450AD1A9688B44C5F87C
S113BD9008B06F614BF00100786047F80BB05EE1CA
S113BDA0D8F8040000F00301012940F0B880C0086D
S113BDB0C000C1081F29039040D8D8F80820009279
S113BDC0D8F80C600291B04508BF00F0F3FC00986D
S113BDD0804508BF00F0EEFCD8F804000299C008C2
S113BDE0C000B0EBC10F18BF00F0E4FC0299009A48
S113BDF005F1280000EBC100824208D011462A69EF
S113BE009142C0F08780CA68424540F0838000991F
S113BE108E4206D102982A68012383409A432A60FD
S113BE207AE0864205D029698E4273D3B0684045D2
S113BE3070D10098C6600099B1606DE0D8F8180020
S113BE400090D8F80C6046450DD0D8F80800296950
S113BE50884223D3C268424504BFB16841451DD11D
S113BE60C660B0601CE008F114010E6836B908F130
S113BE7010010E68A6B101E011460E6806F1140225
S113BE801068002802BF06F1100210680028F3D1E0
S113BE902869814202D300220A6001E000F08AFC92
S113BEA00098002838D0D8F81C0005F5987101EBEB
S113BEB080000168884509D106609EB9D8F81C0045
S113BEC06968012282409143696025E000982969EC
S113BED0884205D30169414514BF4661066101E00A
S113BEE000F068FCC6B129698E4213D30098B06192
S113BEF0D8F8100028B1884226BF3061866100F06E
S113BF0059FCD8F8140038B12969884202D3706109
S113BF10866101E000F04EFC039988448B44D8F814
S113BF20041049084900C8F804104BF00100786077
S113BF304FEADB0647F80BB01F2E22D805F1280084
S113BF4000EBC604A146BBF1100F38BF00F032FC71
S113BF50286820FA06F1CA0705D4012101FA06F679
S113BF6006432E6006E0A068296988422CBF8146FA
S113BF7000F020FCA760C9F80C70C7F80890FC60BA
S113BF806DE05FEA1B2008BF002123D0B0F5803F9D
S113BF9028BF1F211ED2A0F58072120C02F00802E5
S113BFA09040A0F58051090C01F004018840A0F5EF
S113BFB080431B0CC2F10E0203F00203521AD21A80
S113BFC0984002EBD032D01D2BFA00F101F00101B0
S113BFD001EB4201F961002305F598727B6102EBE4
S113BFE081003B616A6822FA01F3DE0707D401236A
S113BFF003FA01F1114369600760B8611DE002684A
S113C0001F291DBF4908C1F119010BFA01F1594655
S113C01000E002465068C008C000584510D002F144
S113C0201003C80F03EB8003490018680028F0D1FF
S113C0302869834211D31F60BA61FF60BC600EE0BF
S113C040296990688A4228BF884206D3C7609460F1
S113C050B860FA600020B86101E000F0ABFB019821
S113C06000F108080BE121462846FFF753F901685F
S113C070406808440090A0F1270111F007000098DF
S113C0800EBF0021C1F1080101F007010844A0F12D
S113C0902F0B04F110018B4538BFA3460BF1180296
S113C0A0002102920191A8F1280249462846FFF78F
S113C0B054F90BF1080010F0070F18BF00F07AFBD9
S113C0C01B20CBF8040005F5E07292E809500BF14F
S113C0D0080181E8095000210BF10800F961B861F9
S113C0E0009A02980199C7F81090C7F814800723A2
S113C0F000E0001D491C00F1080797424360F8D393
S113C1000129D8BF00F056FBA34500F0A580ABEB96
S113C110040B201D221D50F80B104908490042F859
S113C1200B104BF0010060604FEADB0944F80BB0E0
S113C130B9F11F0F22D805F1280000EBC907B84652
S113C140BBF1100F38BF00F035FB286820FA09F165
S113C150CA0705D4012101FA09F10843286006E061
S113C160B868296988422CBF804600F023FBBC6074
S113C170C8F80C40C4F80880E7606DE05FEA1B2053
S113C18008BF002123D0B0F5803F28BF1F211ED255
S113C190A0F58072120C02F008029040A0F58051C4
S113C1A0090C01F004018840A0F580431B0CC2F186
S113C1B00E0203F00203521AD21A984002EBD03254
S113C1C0D01D2BFA00F101F0010101EB420105F54C
S113C1D09872002302EB8100E161636123616A6864
S113C1E022FA01F3DF0707D4012303FA01F1114313
S113C1F069600460A0611DE002681F291DBF490831
S113C200C1F119010BFA01F1594600E002465068E8
S113C210C008C000584510D002F11003C80F03EB4A
S113C2208003490018680028F0D12869834211D39B
S113C2301C60A261E460A4600EE0296990688A42EF
S113C24028BF884206D3C4609460A060E2600020E6
S113C250A06101E000F0AEFAE86886420DD2801BCE
S113C260A969E8608A19AA6140F00100506046F0AB
S113C27003064E6001F1080801E04FF00008AFF337
S113C2800080404605B0BDE8F08F002800D170471B
S113C2902DE9F047A0F10805AFF30080DFF80C6545
S113C2A031698D42C0F07A82686800F00302012A85
S113C2B000F07482C2084FEAC209C20705EB0908FC
S113C2C039D42C6810F0030F00F06A8260420544F0
S113C2D08D42A144C0F062827069854200F0DA8028
S113C2E0E408202C72D2D5F80CA0AF68554508BFDD
S113C2F000F060FABD4208BF00F05CFA6868C0084C
S113C300C000B0EBC40F18BF00F054FA06F12800C7
S113C31000EBC400874205D031698F4253D3FA68D9
S113C320AA4250D1BA4540D13068012101FA04F43F
S113C33020EA04043460454580F03082D8F8044093
S113C340E00740F12B82A10700F17C81B0698045B0
S113C35040F0B380F168B5618944C6F80C9049F0A7
S113C3600100686071698D4202D100207061B06083
S113C370F169494580F01482DFF82C24106808B96B
S113C380FEF7D5FFB169002900F00A82F068292878
S113C39024BF3046FEF7BEFFF069F168884280F0A2
S113C3A0FF814FF0FF30F061FAE1824506D0306939
S113C3B0824508D3DAF80810A94204D1C7F80CA0C2
S113C3C0CAF80870B7E700F0F5F9B4E7EC68AF69AC
S113C3D0AC420BD0A868884222D3C168A94204BFEA
S113C3E0A268AA421CD1C460A0601BE005F114023B
S113C3F0146834B905F1100214689CB101E01A46BE
S113C400146804F114031868002802BF04F110032F
S113C41018680028F3D18A4202D30021116001E098
S113C42000F0C8F9002F86D0E96906F5987000EB92
S113C43081000268954209D10460200011D1E869A5
S113C4407168012282409143716074E730698742C8
S113C45005D33969A94214BF7C613C6101E000F055
S113C460A9F9002C3FF467AF31698C42ABD3A761C3
S113C470286928B1884226BF2061846100F09AF9B6
S113C480686900283FF457AF316988429BD36061E3
S113C490846150E798F8040000F0030003287FF457
S113C4A04AAFC6F8089049F00101D8F804004008E2
S113C4B04000C8F8040069600AE0706980450AD148
S113C4C0B16875618944C6F8089049F00100686054
S113C4D045F8099064E1E408E400A144E408202C50
S113C4E03AD2D8F80CA0D8F80870D04508BF00F0AC
S113C4F061F9B84508BF00F05DF9D8F80400C00838
S113C500C000B0EBC40F18BF00F054F906F12800C6
S113C51000EBC400874207D031698F42C0F08580A8
S113C520FA68424540F08180BA4507D1306801215C
S113C53001FA04F420EA0404346078E0824506D069
S113C5403069824571D3DAF8081041456DD1C7F8D6
S113C5500CA0CAF808706AE0D8F80C40D8F8187033
S113C56044450DD0D8F808003169884223D3C26805
S113C570424504BFA16841451DD1C460A0601CE0D0
S113C58008F114010C6834B908F110010C68A4B165
S113C59001E011460C6804F114021068002802BF7F
S113C5A004F1100210680028F3D13069814202D3EB
S113C5B000220A6001E000F0FDF8002F37D0D8F81F
S113C5C01C1006F5987000EB8100026890450AD1B2
S113C5D00460200012D1D8F81C0071680122824046
S113C5E09143716023E03069874205D3396941453D
S113C5F014BF7C613C6101E000F0DCF8BCB131693E
S113C6008C4212D3A761D8F8100028B1884226BF03
S113C6102061846100F0CEF8D8F8140038B1316993
S113C620884202D36061846101E000F0C3F849F0FC
S113C6300100686045F8099071698D420BD1C6F814
S113C6400890ADE064086400C8F8044049F00100B3
S113C650686045F809904FEAD907202F22D206F1E5
S113C660280000EBC704A046B9F1100F38BF00F052
S113C670A1F8306820FA07F1CA0705D4012101FAAC
S113C68007F70743376006E0A068316988422CBF8A
S113C690804600F08FF8A560C8F80C50C5F80880F3
S113C6A0EC607DE05FEA192008BF002123D0B0F5DB
S113C6B0803F28BF1F211ED2A0F58072120C02F009
S113C6C008029040A0F58051090C01F00401884053
S113C6D0A0F580431B0CC2F10E0203F00203521AB0
S113C6E0D21A984002EBD032D01D29FA00F101F0A1
S113C6F0010101EB420106F59872002302EB81006F
S113C700E9616B612B61726822FA01F3DC0707D4DB
S113C710012303FA01F1114371600560A8611DE072
S113C72002681F291DBF4908C1F1190109FA01F165
S113C730494600E002465068C008C000484510D091
S113C74002F11003C80F03EB8003490018680028A6
S113C750F0D13069834211D31D60AA61ED60AD60F0
S113C7600EE0316990688A4228BF884206D3C560CA
S113C7709560A860EA600020A86101E000F01AF862
S113C780306A401E30620BD1D6F8C80100E08068E0
S113C7900028FCD14FF0FF30306201E000F00AF8CD
S113C7A0AFF30080BDE8F087F89D0020088E0020DC
S113C7B0FFF76BBD012000F017B843000749086874
S113C7C008B1002070470648C008C0000860054949
S113C7D0C908C900091A0160704700BFC8A0002039
S113C7E0D7B00020D0C0002080B500F007F8024A7E
S113C7F011001820ABBEFBE72600020010B500F0C4
S113C80052F802000023DB4300241068984203D04E
S113C81011000220ABBE14605068984203D0111D71
S113C8200220ABBE546010BDF0B583B0040000F02C
S113C8303AF8A10047183D680026F643B54216D1E0
S113C84000F01AF83D68B5420FD100BF09A000906E
S113C850002C01D1002000E004200190032002906C
S113C86069460120ABBE05003D6000F014F82800C5
S113C87003B0F0BD3A7474000C480121BFF35F8F1C
S113C880D0E84F3FC0E8421F002AF9D1BFF35F8FC1
S113C890002BF3D170470548BFF35F8F002101706F
S113C8A0BFF35F8F7047024870470000C29E0020AC
S113C8B03C180020E0B50021CDE900116A460121B1
S113C8C08DF80010002000F025F80121002000F070
S113C8D08DF803B000BD80B510B1022809D001BDA8
S113C8E0012100F08BF86420FEF784FCBDE80440CD
S113C8F007E0BDE804400121002000F07FB80000FB
S113C90000BF0121002000F071B80268531C0360CD
S113C91011707047F0B4524B524D4AF201541C80CE
S113C92005EB801500240120A040014240D0567838
S113C9302F8866F38E372F8096782F8866F30C370E
S113C9402F80D6782F8866F349272F8016792F8871
S113C95066F386172F8096792F8866F382072F80D7
S113C96056792F8866F305172F801078002803D096
S113C970022813D009D315E02E88C6F30E062E80A4
S113C9804FF6FD702F88074006E02E88C6F30E068A
S113C9902E802F8847F002072F8003E02E8846F46C
S113C9A000462E80A81CD679078866F308270780DE
S113C9B0641C2D1D102CB6D34FF425401880002084
S113C9C0F0BC704726494AF2015008807047244958
S113C9D04FF4254008807047254A02EB0012106886
S113C9E00140481E8041C043C00F70471E4A02EBFD
S113C9F00012106801431160002070471B4AF6E7DB
S113CA00F0B5174C1B4E4AF20155258006EB8016F3
S113CA1000254FF480774FF6FF604FF0010C0CFABD
S113CA2005FC11EA0C0F12D0B6F800C062F3050C35
S113CA30A6F800C0012BB6F800E00CBFBC464FF0CE
S113CA40000C00EA0E0E4CEA0E0CA6F800C06D1C99
S113CA50361D102DE1D34FF4254020800020F0BD79
S113CA60FC3B0540003C0540083805400A380540B9
S113CA7000380540023C05400278437842EA03222C
S113CA8036204243002A03D000BF521E002AFBD1A5
S113CA90002008700120704738B5DFF828530C4691
S113CAA02978012918BFFF2010D141788278C378F2
S113CAB0007941EA022141EA034141EA006100911F
S113CAC00020694601F0D5FA686400202070012036
S113CAD032BD00002DE9F04F87B002460023BA4D65
S113CAE00293002005918C1C2870961C5178002913
S113CAF000F05A81019004900391039916F801AB58
S113CB00491E5FEA8A72039140F1CB800199C1B357
S113CB10AC48B0F80E800AF01101012910D1019F30
S113CB206946504601F0A5FA02281AD15FEA0801C5
S113CB30A8F1010800F0388129780029F0D033E108
S113CB4069460E2001F095FA022809D15FEA08012E
S113CB50A8F1010800F0288129780029F0D023E108
S113CB6000270128019740F0ED8000992170009A78
S113CB70120A62700099090CA1700099090EE17003
S113CB80241D5FEACA620AF001018E4F51D5327842
S113CB907078B7F8109042EA0020B27840EA024276
S113CBA0F07842EA0068361DA1B1B7F80EB0002152
S113CBB0504601F05EFA022809D15FEA0B01ABF19D
S113CBC0010B00F0F18029780029F0D0ECE0012875
S113CBD040F0B880B7F80EB06946504601F049FA03
S113CBE0014602290ED15FEA0B00ABF1010B02D022
S113CBF028780028F0D0084600997A691140414508
S113CC0012D00FE00129F6D100987A69104040450E
S113CC10F1D05FEA0900A9F1010902D028780028BF
S113CC20D8D0012040F01000012840F08B80002172
S113CC307EE0FF89B1B1019989BB0021504601F022
S113CC4018FA022808D139464F1E002900F0AC809A
S113CC5029780029F1D0A7E0012873D1012101919D
S113CC60002165E06946504601F003FA022808D124
S113CC7039464F1E002900F0978029780029F1D009
S113CC8092E001285ED100992170009A120A627024
S113CC900099090CA1700099090EE170241D00216E
S113CCA046E00198F8B14749CF8969460E2001F062
S113CCB0E0F9022807D139464F1E002974D029789B
S113CCC00029F2D070E001283CD10098207000992E
S113CCD0090A61700098000CA0700098000EE070C2
S113CCE0241D0020019031787078B27841EA002147
S113CCF0F07841EA0241361D41EA00615FEA8A6048
S113CD000091304802D54161012012E0C78969468B
S113CD10504601F0AEF9022807D139464F1E0029CA
S113CD2042D029780029F2D03EE001280AD101211D
S113CD300491029A521C0292297819B90399002984
S113CD407FF4DBAE0128019A04992DD1EAB11D4884
S113CD50C68969460E2001F08CF9022806D13146B5
S113CD604E1E09B329780029F3D01DE001281BD1F8
S113CD7000992170009A120A62700099090CA1703E
S113CD800099090EE170241D0EE069B10D48C689B1
S113CD9000210E2001F06DF9022805D131464E1E06
S113CDA011B129780029F3D0059A0299117001284C
S113CDB00599487006BF0598201A002007B0BDE801
S113CDC0F08F0000F4970020739E00202DE9F24FAD
S113CDD0054686B02878A0F18001202905D206995D
S113CDE0284600F09BFD00F044BD069A521C0692B2
S113CDF002F8010D15F8010B162800F23285DFE860
S113CE0010F017003F0044008200C501D7017C03E5
S113CE103005000594009A003005300530053005D2
S113CE203005A10025014501510160018101A401E2
S113CE3029780020042917D0F02910D0FE2902D027
S113CE40FF2904D017E006990120487013E00699E1
S113CE504020487000200699887002200BE0069953
S113CE6003204870012006E006990FF6AC204A1C06
S113CE7001681160042006990870801C00F0F9BC58
S113CE80287801283BD9FF2115E02878C8B9012169
S113CE90DFF8582A012010700023DFF8540AC36316
S113CEA000220264012303604360DFF8480AC2637E
S113CEB0026403604360069801700227384600F05C
S113CEC0D8BC01280146E3D0022818D1DFF81C0A97
S113CED0DFF8244A022202704AF20153DFF8100AF2
S113CEE023800022C26300230364012202604260A3
S113CEF0DFF8000AC363036402604260DBE706995B
S113CF0000200870D9E7DFF8E41900200870002237
S113CF10DFF8DC09C26302644260DFF8D809C26347
S113CF200264426006990A70C7E706992846FFF72B
S113CF30A3FD00F071BC06990020487006990870A2
S113CF400327BBE7AA78E878297995F801C02F78F8
S113CF5042EA0022687942EA014242EA00621CF095
S113CF60010008D007F001014B1E9B41DB43DFF8B1
S113CF708019DB0F0B601CF0020108D007F00203DC
S113CF805C1EA441E443DFF86C39E40F1C60002A02
S113CF904AD0DFF86839DFF868E9DFF868699A424F
S113CFA088BF1A46DFF860395A430024A2FB066999
S113CFB0CEF808404FEAD942CEF804200524CEF832
S113CFC00040FA09BB0882F0010283F001037C09E6
S113CFD087F001050CF0040938B1DFF81469366AEA
S113CFE0012E0CBF2E463E46BEB949B1DFF8046996
S113CFF0366A012E0CBF0126002696EA570F0CD183
S113D000B9F1000F18BF002B07D15FEA8C6600D579
S113D0101CB95FEA0C6604D51AB1DEF80060F603A9
S113D020DAD50020CEF80000DFF8C418086ADFF86B
S113D030C4180A6A0699012818BF0020012A08BFEB
S113D04040F0020040F08C00087036E72978DFF8E1
S113D0509C08012910D16A78A978012A03D10121F9
S113D0604170426005E000230429A8BF03214370F6
S113D070416001F001F805E0069A41785170069983
S113D0804068887000200699087016E7294611F850
S113D090010B08B94FF4807000F044FC069900209D
S113D0A008700AE72978DFF8440801F003028908C8
S113D0B0521C01F0010102764176002006990870A5
S113D0C0FBE6DDF81890002009F8010B012715F89C
S113D0D0014B14E015F8016B4A462946304600F02E
S113D0E0DFFF641E16F03F0008BF4020C01D31065C
S113D0F005EBD00544BF09EBD00907EBD007002CA2
S113D100E8D170E315F8010BDFF8E02790760023EF
S113D110B8B102F11C0402F12409014615F8016BAF
S113D12004F8016B29F8023BF318491EF6D102F109
S113D1301C01343211F8014B1B1B401E22F8023B28
S113D140F8D1069900200870B7E6DFF8A017087830
S113D15002287FF498AE2878C876897E8842BFF486
S113D16092AE0E2001F0F2FB01F02EFA069A002195
S113D1701170020A06994870062706998A70020CF3
S113D1800699CA70000E0699087197E6DFF85C07E5
S113D190297801736A78A97842EA0122C281E97880
S113D1A02A7941EA0221018200200699087084E666
S113D1B0DFF838070178012902D0022905D095E16A
S113D1C006992846FFF786FC26E30699DFF83C77A4
S113D1D004910022059200203A708E1C0190029066
S113D1E02978DFF80827D176927E914280F0778102
S113D1F06978002905F1020800F07181039103990F
S113D20018F8014BDFF8E4A6491E0391E1074CBF6F
S113D2100B250A25A20740F1EE800299002942D08D
S113D2200198BAF80E90A84214D1E10612D4CB4664
S113D230DDF808906946204601F08FFB022822D1D0
S113D2405FEA0B01ABF1010B00F049813978002949
S113D250F0D044E10A2804D00A2101910A2001F007
S113D26075FB69460E2001F078FB022809D15FEABC
S113D2700901A9F1010900F0328139780029F0D0BF
S113D2802DE14FF000090128CDF8089060D10099F4
S113D2903170009A120A72700099090CB1700099E9
S113D2A0090EF170361DE10640F1868098F80010F1
S113D2B098F80100BAF810B041EA002098F802107A
S113D2C040EA014198F8030041EA00690198A84244
S113D2D008F1040803D00195284601F037FBBAF899
S113D2E00E500021204601F038FB022808D12946BF
S113D2F04D1E002900F0F38039780029F1D0EEE0CA
S113D3000128254624D14C46D146B9F80EA06946D9
S113D310284601F022FB0146022939D15FEA0A00BE
S113D320AAF1010A02D038780028F0D00846009A01
S113D330D9F814100A40A2423BD1012808D1059A19
S113D340521C0592397819B9039900297FF457AF13
S113D350012840F0C48001980A281CBF0A2001F06B
S113D360F5FADFF88805C4890298002800F0AB803C
S113D37069460E2001F0F1FA022840F0958021461A
S113D3804C1E002900F0AB8039780029F0D0A6E0CB
S113D3900129CBD10098D9F814201040A042C5D05F
S113D3A05FEA0B00ABF1010B02D038780028ACD057
S113D3B0012040F01000C0E702990029BFD1019874
S113D3C0A84203D00195284601F0C0FABAF80E50DD
S113D3D00021204601F0C1FA022807D129464D1E3A
S113D3E000297CD039780029F2D078E00128AFD127
S113D3F001210291A3E7029840B301980A2804D0BE
S113D4000A2101910A2001F0A1FABAF80EB0694686
S113D4100E2001F0A2FA022808D15FEA0B01ABF159
S113D420010B5CD039780029F1D058E001288FD164
S113D430009830700099090A71700098000CB0705F
S113D4400098000EF070361D0020029098F800102D
S113D45098F8010098F8022041EA002198F80300A6
S113D46041EA024141EA0061A006009108F1040882
S113D47003D5CAF81410012061E70198A84203D02B
S113D4800195284601F062FABAF80E506946204622
S113D49001F063FA02287FF450AF29464D1EF1B122
S113D4A039780029F2D01AE0012818D10099317096
S113D4B0009A120A72700099090CB1700099090E51
S113D4C0F170361D0BE000210E2001F046FA02280F
S113D4D005D121464C1E11B139780029F3D0049AA4
S113D4E00599117004994870049FB5E006990020CD
S113D4F0087000220698427022E5DFF8F0030178F4
S113D500012903D0022900F0A9806FE10699DFF810
S113D510FC330020CE1C18706978AA7841EA0221F5
S113D5200C004FF0000800F08D8095F803A0DFF8A0
S113D530BC732A1D5FEA8A7328D401920291DFF832
S113D540CC530198017802465446507841EA0021B0
S113D550907841EA0041D07841EA00610091019855
S113D560011D01910299F889491E0291824669467A
S113D570204600F07EFD02284FD15FEA0A01AAF19D
S113D580010A5FD029780029F1D05BE05FEACA7014
S113D59058BF641E1BD5B7F80EB0DFF870530021D6
S113D5A0504600F066FD022808D15FEA0B01ABF19A
S113D5B0010B47D029780029F1D043E0012841D15B
S113D5C0641E04D15FEACA7048BF4FF00E0AB7F870
S113D5D00EB0DFF838536946504600F04AFD022881
S113D5E008D15FEA0B01ABF1010B2BD0297800299C
S113D5F0F1D027E0012825D10099317008F1010804
S113D600009A120A72700099090CB1700099090EFF
S113D610F170361D002CD3D114E00128A24611D19B
S113D6200298002808F101088BD1FF8900210E20FF
S113D63000F01FFD022805D139464F1E11B129788B
S113D6400029F3D0069981F800804FEA1821069A40
S113D650517006998870069FF71BC4E00699002054
S113D660CA1CAA49019002920870A04915F8012B1E
S113D670CA76897E8A4280F0AA802C78697854EA36
S113D680012400F0A480A8780390C10747BF0B22AF
S113D69004920A210491049801F058F9039881072F
S113D6A005F1030829D4019F029EDFF860B298F8BF
S113D6B0000098F8011098F8022040EA012098F838
S113D6C0031040EA024040EA0160009008F10408B7
S113D6D08648039DB0F80EA0641E6946284601F0F2
S113D6E03CF9022856D15FEA0A01AAF1010A6CD07A
S113D6F09BF800100029F0D067E07C48DDF80CA00E
S113D700C589019F029EDFF804820021504601F082
S113D71024F9022808D129464D1E002955D098F82D
S113D72000100029F1D050E00197012802964ED153
S113D730019FDDF81080754D641E07D1B8F10A0F02
S113D7401CBF0A2001F002F94FF00E0A6748B0F836
S113D7500EB06946504601F000F9022808D15FEA8C
S113D7600B01ABF1010B30D029780029F1D02CE06A
S113D77001282AD1009931707F1C009A120A727014
S113D7800099090CB1700099090EF170361D002C36
S113D790D2D11AE00128039517D17F1C002C86D121
S113D7A004980A281CBF0A2001F0D0F84F48C58904
S113D7B000210E2001F0D1F8022806D129464D1E81
S113D7C019B19BF800100029F2D00197029606992E
S113D7D0019A0A700699019A120A4A70069A907080
S113D7E00298069FC71B7F1CFFF768BB06990020A1
S113D7F00870002206984270042706988270FFF78A
S113D8005DBB3A490878012802D0022806D021E0FD
S113D81006992846FFF740F90746E4E77FF433AB5F
S113D8202878C876897E8842BFF42DAB082001F0A1
S113D8308DF86878A978EA7840EA0120297940EAE5
S113D840024040EA016000F069FF06990020087078
S113D850FFF733BB0699FF20087007B00220BDE82C
S113D860F08F0699FF2001F8010C07B00120BDE8F4
S113D870F08F07B0BDE8F08F80B51C48012100226D
S113D880642301700273C38102824261017642768D
S113D8908276826000F0F0FB002300224FF4805176
S113D8A00220FFF7ADF80023002204210320FFF734
S113D8B0A7F811494AF20150088000220C48C263BB
S113D8C0012101600123436002640A48C2630360CA
S113D8D0436002640E48C2630360436002640D48FF
S113D8E0C26303604360026401BD0000F49700203A
S113D8F00096A7420099A742FC3B0540C0C62D00F4
S113D90010E000E006BD378600688909739E002098
S113D9108083A7420083A742312E3000FF20087085
S113D92001207047002800D17047F0B4DFF8584751
S113D930DFF85857DFF85867401E01E0401E13B95E
S113D94011F8017B082307F00102B2F1010C6CEB22
S113D9500C0C6FEA0C02D20F326000222A6062685B
S113D960002A03D000BF521E002AFBD101222A60E4
S113D9706268002A03D000BF521E002AFBD17F0830
S113D9805B1E0028DAD1F0BC704700002DE9F0439B
S113D9900546DFF8F8360C460120C3F800030021E1
S113D9A019601860C3F800531960680801211960F0
S113D9B0C3F8000300221A6019604019A908C3F8CB
S113D9C000131A60012608181E60E908C3F8001342
S113D9D01A601E600818C3F800031A600121196058
S113D9E0C3F800231A601960C3F800131A601960A1
S113D9F0DFF8A066DFF890863260C3F8042398F855
S113DA001800A8B110F0030204D000271F60521EB2
S113DA101960FAD181080BD000221A6001271F6017
S113DA201A601F601A601F601A60491E1F60F3D1DC
S113DA30002119600127D3F820231F6019604FF0DB
S113DA40000ED3F820131F60C3F800E042EA41023D
S113DA50D3F820C31F6042EA8C02012A40F083807D
S113DA60A90737D5F44600255FF020014FF0000EDA
S113DA70C3F800E0E146D3F820E34FEACE7C491E28
S113DA801F6075444CEA590CF0D11960D3F8201387
S113DA901F604D40E90748BF08220CB1C4F800C01C
S113DAA0A0B110F0030104D000241C60491E1F60C3
S113DAB0FAD180080AD0002119601F6019601F6024
S113DAC019601F601960401E1F60F4D13760C3F8ED
S113DAD0047328E0A0B110F0030104D0C3F800E0FF
S113DAE0491E1F60FAD180080AD0002119601F6006
S113DAF019601F6019601F601960401E1F60F4D117
S113DB003760C3F8047300212468202000256118BD
S113DB10C3F800431D606408401E1F60F7D1C3F8BA
S113DB20001318601F6098F80C00B8B10021C3F806
S113DB30001310F0030104D000241C60491E1F6070
S113DB40FAD180080AD0002119601F6019601F6093
S113DB5019601F601960401E1F60F4D1C3F8007380
S113DB60D0B2BDE8F083022A18BF042A36D198F84F
S113DB70194044B1A90706D55FF02101C3F800E0BC
S113DB80491E1F60FAD1A8B110F0030100F005800E
S113DB90C3F800E0491E1F60FAD180080AD00021B2
S113DBA019601F6019601F6019601F601960401EB2
S113DBB01F60F4D13760002CC3F80473CED0A807DB
S113DBC0CCD40021C3F8001321201960401E1F602B
S113DBD0FBD1C3F80073D0B2BDE8F083213010F05C
S113DBE0030104D0C3F800E0491E1F60FAD1800885
S113DBF03FF4B4AFC3F800E01F60C3F800E01F6057
S113DC00C3F800E01F60C3F800E0401E1F60F1D1BC
S113DC10C3F80073D0B2BDE8F08300002DE9F041F1
S113DC200F460646DFF86814DFF860240120086018
S113DC3000231360DFF850345868002803D000BF75
S113DC40401E0028FBD1012010605868002803D032
S113DC5000BF401E0028FBD10E60002010605868F1
S113DC60002803D000BF401E0028FBD10120106013
S113DC705868002803D000BF401E0028FBD1740858
S113DC800C60002010605868002803D000BF401EBC
S113DC900028FBD1012010605868002803D000BF81
S113DCA0401E0028FBD1B5080D6000201060A419A7
S113DCB05868002803D000BF401E0028FBD1012073
S113DCC010605868002803D000BF401E0028FBD114
S113DCD02C19F5080D60002010605868002803D046
S113DCE000BF401E0028FBD10120106058680028A6
