:1000000010F5FF1FE1760000615B0000695B0000F6
:10001000715B0000795B0000815B00000000000064
:10002000000000000000000000000000895B0000EC
:10003000915B000000000000995B0000A15B0000E4
:10004000FD760000017700000577000009770000C9
:100050000D77000011770000157700001977000078
:100060001D77000021770000257700002977000028
:100070002D770000317700003577000039770000D8
:100080003D77000041770000457700004977000088
:100090004D77000051770000557700005977000038
:1000A0005D770000617700006577000069770000E8
:1000B0006D77000071770000A95B00007577000084
:1000C000797700007D770000817700008577000058
:1000D000897700008D770000917700009577000008
:1000E000997700009D770000A1770000A5770000B8
:1000F000A9770000AD770000B1770000B577000068
:10010000B9770000BD770000C1770000C577000017
:10011000C9770000CD770000D1770000D5770000C7
:10012000D9770000DD770000E1770000E577000077
:10013000E9770000ED770000F1770000F577000027
:10014000F9770000FD7700000178000005780000D5
:10015000097800000D780000117800001578000083
:10016000197800001D780000217800002578000033
:10017000297800002D7800003178000035780000E3
:10018000397800003D780000417800004578000093
:10019000497800004D780000517800005578000043
:1001A000597800005D7800006178000065780000F3
:1001B000697800006D7800007178000075780000A3
:1001C000797800007D780000817800008578000053
:1001D000897800008D780000917800009578000003
:1001E000997800009D780000A1780000A5780000B3
:1001F000A9780000AD780000B1780000B578000063
:10020000B9780000BD780000C1780000C578000012
:10021000C9780000CD780000D1780000D5780000C2
:10022000D9780000DD780000E1780000E578000072
:10023000E9780000ED780000F1780000F578000022
:10024000F9780000FD7800000179000097040000B3
:100250009B0400009F040000A30400000579000037
:10026000097900000D79000011790000157900006E
:10027000197900001D79000021790000257900001E
:10040000FFFFFFFFFFFFFFFFFFFFFFFFFFFFFFFFFC
:10041000FFFFFFFFFFFFFFFFFFFFFFFFFFFFFFFFEC
:100420007047914234BF511A0021084670473EB5CB
:1004300004000D00012A02D106F0CEFD07E0022AD9
:1004400007D100940020019069460C20ABBE2D1806
:1004500001E0002A0CD10094019569460A20ABBE48
:10046000002805D100222100280006F092FD01E0BD
:100470000020C04303B030BD80B5002901D1002069
:1004800002BD012801D0022802D106F0C7FD02BD3D
:1004900006F0D4FD02BDFFF7FEBFFFF7FEBFFFF77A
:0604A000FEBFFFF7FEBFE6
:10050000424C5F56312E305F323031373131323329
:100510003133313000000000000000000000000016
:1005200000F5E0700268914203D343681A44914297
:1005300002D380680028F5D17047DFF86C1708688F
:1005400090B94FF4805048604FF480324FF0FF3044
:10055000C86008610420DFF854378A604861C3F836
:10056000BC01DFF84C0708600120704701F1080367
:1005700013F0070F0EBF0023C3F1080303F00703B6
:100580001944D21A8161C26042F001034B60091D17
:100590004FF0280C41F802C0DFF80C271369C36143
:1005A00070472DE9FC4B074601F1080010F0070FDA
:1005B0000FBF8946C0F1080000F0070001EB0009F9
:1005C00002F1080111F0070F06D002F10800C0F196
:1005D000080000F0070002441546A5EB090009EBEE
:1005E0000306A0EB030B43F00303C9F80430AE424B
:1005F00028BF01F005FA2879C10758BF01F000FAB9
:10060000BBF1100F38BF01F0FBF9B869854208D182
:10061000F9688B44C7F80CB0BE614BF00100706004
:1006200051E1786985420AD1B9688B44C7F808B0AE
:100630007E614BF00100706046F80BB043E16868E2
:1006400000F00301012940F0AC80C008C000019017
:10065000C0081F2839D8AC68D5F80C8000904545F3
:1006600008BF01F0CDF9A54208BF01F0C9F96868DB
:100670000099C008C000B0EBC10F18BF01F0C0F96D
:10068000009907F1280000EBC100844206D03969C7
:100690008C42C0F08180E268AA427DD1A04506D19B
:1006A00000983968012383409943396076E080459A
:1006B00006D0396988456FD3D8F80800A8426BD1B5
:1006C000C4F80C80C8F8084068E0EC68D5F81880D9
:1006D000AC420CD0A8683969884223D3C268AA42C8
:1006E00004BFA168A9421DD1C460A0601CE005F14F
:1006F00014010C6834B905F110010C68A4B101E0D3
:1007000011460C6804F114021068002802BF04F1BD
:10071000100210680028F3D13869814202D3002208
:100720000A6001E001F06CF9B8F1000F36D0E96918
:1007300007F5987000EB81000268954208D10460CB
:10074000A4B9E8697968012282409143796025E083
:100750003869804508D3D8F81010A94214BFC8F8EA
:100760001440C8F8104001E001F04AF9B4B1396909
:100770008C4211D3C4F81880286928B1884226BF5A
:100780002061846101F03CF9686938B139698842B7
:1007900002D36061846101E001F032F901996D18C2
:1007A0008B4469684908490069604BF0010070603A
:1007B0004FEADB0446F80BB01F2C23D807F12800C2
:1007C00000EBC4084546BBF1100F38BF01F018F923
:1007D000386820FA04F1CA0705D4012101FA04F4AB
:1007E00004433C6007E0D8F80800396988422CBF10
:1007F000054601F005F9C8F80860EE60B560C6F876
:100800000C8060E05FEA1B2008BF002123D0B0F518
:10081000803F28BF1F211ED2A0F58072120C02F06B
:1008200008029040A0F58051090C01F004018840B5
:10083000A0F580431B0CC2F10E0203F00203521A12
:10084000D21A984002EBD032D01D2BFA00F101F001
:10085000010101EB4201F161002307F59872736118
:1008600002EB810033617A6822FA01F3DC0707D4D6
:10087000012303FA01F1114379600660B0611DE0C4
:1008800002681F291DBF4908C1F119010BFA01F1C6
:10089000594600E002465068C008C000584516D0CE
:1008A00002F11003C80F03EB800349001868002809
:1008B000F0D13869834204D31E60B261F660B6603D
:1008C00001E001F09DF809F10800BDE8F68B3969F7
:1008D00090688A4228BF8842F3D3C6609660B060B1
:1008E000F2600020B061EEE72DE9FE4F04468B4632
:1008F000A5692E46904699463146FFF711FE0268DB
:10090000416802EB010AAAF1270111F007000EBFAE
:100910000021C1F1080101F007010AEB0100A0F17B
:100920002F0706F110018F4238BF374607F1180232
:10093000002101920091A8F1280259462046FFF7B4
:1009400015FE07F1080010F0070F18BF01F058F866
:100950001B20786007F1080104F5E07090E80C5066
:1009600081E80C50C0F800B0C0F80480C0F80C90CA
:10097000816007220198009900E0001D491C00F1E8
:10098000080353454260F8D30129D8BF01F038F875
:10099000B74200F09580BF1B301D321DC159490878
:1009A0004900D15147F0010070604FEAD70BF75171
:1009B000BBF11F0F21D804EBCB0000F12805A8469E
:1009C000102F38BF01F01CF8206820FA0BF1CA077D
:1009D00005D4012101FA0BF10843206006E0A86864
:1009E000216988422CBF804601F00AF8AE60C8F841
:1009F0000C60C6F80880F5606FE0380A08BF002177
:100A000023D0B0F5803F28BF1F211ED2A0F58072F1
:100A1000120C02F008029040A0F58051090C01F080
:100A200004018840A0F580431B0CC2F10E0203F0C4
:100A30000203521AD21A984002EBD032D01D27FA84
:100A400000F101F0010101EB420104EB81020023FE
:100A500002F59870F16173613361626822FA01F303
:100A6000DB0707D4012303FA01F11143616006603B
:100A7000B0611DE002681F291DBF4908C1F11901BD
:100A800007FA01F1394600E002465068C008C0008C
:100A9000B84216D002F11003C80F03EB80034900DF
:100AA00018680028F0D12069834204D31E60B26127
:100AB000F660B56011E003B0BDE8F04F00F0A0BFF4
:100AC0000BE0216990688A4228BF8842F3D3C66050
:100AD0009560B060F2600020B06103B0BDE8F08FB7
:100AE0002DE9F041704F05463868884608B9FFF790
:100AF00024FDB96801EB08002F30491E20EA0101EE
:100B000088457DD205F5D876B06828B13268891855
:100B10008A4275D2884273D300F092FF01001CBF55
:100B20000C6811F1010F6BD03068201805F5D872F0
:100B300030605368984238BF18467060A86960BB3F
:100B4000286908B1814200D22961316174610020B5
:100B5000F0614FF0FF303A686A62286205F12802BE
:100B60000020D260926002F1080757611761801C73
:100B700010322028F5D34D48854208BFA4F1280241
:100B800028D055F8040CC00805EBC002A2F10800FB
:100B90000A19121A283A01461CE005F5E0700246CF
:100BA00000E092687AB3136857681F44B942F8D1DD
:100BB000137B1F0727D4AB691768BB4223D3D2F836
:100BC00004C06744BB421ED2A444C2F804C0E86813
:100BD000A96922182846FFF7C9FC1FE08068C0B148
:100BE00003689342FAD1027B130712D402680160B2
:100BF0004368E418446043462846BDE8F041D0E429
:100C00000020BDE8F0812A69914238BF29610A19A4
:100C1000E5E7002322462846FFF766FEE8688045A0
:100C2000EED2A0EB0800A969E86001EB0802AA6116
:100C300040F00100506048F00300486001F10800F6
:100C4000BDE8F08130B4184B1A6882B94FF4805275
:100C50005A604FF480344FF0FF32DA601A61042298
:100C6000124D9C605A61C5F8BC21114A1A6011F1FD
:100C7000400F17D28269AAB1C368283199420BD2BA
:100C800000F5E0710C68A24203D34D682C44A242E7
:100C900002D389680029F5D1C16999423CBF4FF060
:100CA000FF32C26100F0A8BED0F0FF1F9CECFF1F16
:100CB0006859883C2DE9F84F00258946090AC9F191
:100CC000000B08BF002323D0B1F5803F28BF1F23AE
:100CD0001ED2A1F58072120C02F008029140A1F51B
:100CE00080531B0C03F004039940A1F58044240CAD
:100CF000C2F10E0204F00204D21A121BA14002EB50
:100D0000D132D11D29FA01F303F0010303EB4203B1
:100D1000074607F5987858F8230030B31F2B0FBF0C
:100D20004C465C08C4F1190409FA04F4AC4659466F
:100D300000E064004268D208D200A2EB09028A42B5
:100D400003D21100054600F06981426910304FEA74
:100D5000D47B50F82B00002A1CBF82429446002806
:100D6000E7D18B466046B0BBBDBB012202FA03F35C
:100D70005B005842796803430B4000F04E815842B3
:100D800003405B1E180B00F01000C340590901F02E
:100D90000801CB409A0802F00402D3405C0804F03A
:100DA00002040818E3401018C3F34006201830442A
:100DB000F3401B1858F823000DE008464168C908A5
:100DC000C900A1EB090159453CBF8B4605460169A5
:100DD0000029F2D140690028F0D1002D00F01D81DA
:100DE000B868A0EB0900834580F0178139698D420E
:100DF000C0F011816868C008C00009EB0B0188428F
:100E000018BF00F0FDFD05EB0906B54280F0038137
:100E1000EC68D5F818A0AC420CD0A86839698842B3
:100E200023D3C268AA4204BFA168A9421DD1C460ED
:100E3000A0601CE005F114010C6834B905F1100143
:100E40000C68A4B101E011460C6804F114021068AA
:100E5000002802BF04F1100210680028F3D138699D
:100E6000814202D300220A6001E000F0C9FDBAF11C
:100E7000000F36D0E86908EB800001688D4209D187
:100E80000460200014D1E86979680122824091430E
:100E9000796026E03869824508D3DAF81010A94253
:100EA00014BFCAF81440CAF8104001E000F0A8FDD1
:100EB000BCB13869844212D3C4F818A0286930B193
:100EC0003969884226BF2061846100F099FD686914
:100ED00038B13969884202D36061846101E000F071
:100EE0008FFDBBF1100F0CD2D94449F00300291D2E
:100EF0006860281D51F8092042F0010240F80920DD
:100F000088E049F0030068604BF0010070604FEA30
:100F1000DB0046F80BB01F281DD807EBC00101F11C
:100F20002804396821FA00F2D307A34605D4012228
:100F300002FA00F00843386006E0A0683969884288
:100F40002CBF834600F05CFDA660CBF80C60C6F8B1
:100F500008B0F4605EE05FEA1B2008BF002123D0E8
:100F6000B0F5803F28BF1F211ED2A0F58072120C61
:100F700002F008029040A0F58051090C01F0040134
:100F80008840A0F580431B0CC2F10E0203F002035F
:100F9000521AD21A984002EBD032D01D2BFA00F12F
:100FA00001F0010101EB4201F16100227261326145
:100FB00008EB81007A6822FA01F4E30707D40124E0
:100FC00004FA01F1114379600660B0611DE0026826
:100FD0001F291DBF4908C1F119010BFA01F159463A
:100FE00000E002465068C008C000584518D002F121
:100FF0001003C80F03EB8003490018680028F0D1E4
:101000003869834204D31E60B261F660B66001E0C5
:1010100000F0F6FC14E100F0F3FC0EE18B46A2E6D2
:10102000396990688A4228BF8842F1D3C6609660C9
:10103000B060F2600020B061ECE72DE9F84F0646A1
:101040008846716848420140491E080B00F01000B4
:10105000C1404A0902F00802D1408B0803F00403A2
:10106000D9404D0805F002051018E9401818C1F3E1
:101070004004281806F5987A2044E14009185AF8E7
:1010800021104868C008C0000D46A0EB080909E01F
:1010900001464868C008C000A0EB080048453CBFB6
:1010A00081460D4608690028F2D149690029F0D12E
:1010B00030698542C0F0BF806968C90808EB090B38
:1010C000C900594518BF00F09BFC05EB080085429C
:1010D000009080F0B080EF68AC69AF420CD0A86897
:1010E0003169884223D3C268AA4204BFB968A942C1
:1010F0001DD1C760B8601CE005F114010F6837B955
:1011000005F110010F68A7B101E011460F6807F162
:1011100014021068002802BF07F1100210680028AE
:10112000F3D13069814202D300220A6001E000F06D
:1011300067FC002C31D0E8690AEB800001688D4221
:1011400008D107608FB9E869716801228240914334
:10115000716022E03069844205D32169A94214BF3D
:101160006761276101E000F04BFCB7B1306987424D
:1011700011D3BC61286930B13169884226BF38611A
:10118000876100F03DFC686938B13169884202D35B
:101190007861876101E000F033FCB9F1100F0BD2E8
:1011A0004BF00300291D6860281D51F80B2042F008
:1011B000010240F80B203DE048F003012A1D696060
:1011C00049F0010042F80800009941F80990D6F86A
:1011D00008804FEAD80BBBF1200F28BF00F010FCAD
:1011E000B8F1000F22D006EBCB00776900F128049C
:1011F000A246B8F1100F38BF00F002FC306820FAA8
:101200000BF1CA0705D4012101FA0BF10843306044
:1012100006E0A068316988422CBF824600F0F0FBEE
:10122000A760CAF80C70C7F808A0FC60C6F8089060
:101230000098706104E000F0E3FB0020BDE8F28F4D
:1012400005F10800BDE8F28F2DE9FE4F0546AFF32A
:101250000080F52DDFF89C6780F004810B2D31BFF5
:1012600010250B35ED08ED003068EC08E04010F07B
:10127000030F46D0C04300F00100041906F1280016
:1012800000EBC408E700D8F808506868C008C00040
:10129000B84218BF00F0B4FBD5F80890454508BF28
:1012A00000F0AEFB4D4508BF00F0AAFB6868C0081F
:1012B000C000B84218BF00F0A3FBC84507D1306892
:1012C000012101FA04F420EA040434600DE03069DD
:1012D000814508D3D9F80C10A94204D1C8F8089068
:1012E000C9F80C8001E000F08BFB47F00300291DDA
:1012F0006860281DCA5942F00102C25105F1080474
:10130000F8E0B168A94280F0BE80002800F0A1801A
:101310004FF0010808FA04F1490000FA04F44842C9
:1013200001430C4060420440641E200B00F010009A
:10133000C440610901F00801CC40A20802F0040297
:10134000D440630803F002030818DC401018C4F30B
:10135000400718183818FC40241806F1280000EB44
:10136000C40AE700DAF80890D9F80400C008C00001
:10137000B84218BF00F044FBD9F808B0D14508BF07
:1013800000F03EFBD94508BF00F03AFBD9F8040055
:10139000C008C000B84218BF00F032FBDA4506D1E1
:1013A000306808FA04F420EA040434600DE031697E
:1013B0008B4508D3DBF80C00484504D1CAF808B0C7
:1013C000CBF80CA001E000F01BFB7F1B45F00300F5
:1013D00009F10402C9F8040047F00101515109EB79
:1013E00005020192D751B4684FEAD40ABAF1200F2E
:1013F00028BF00F005FB34B3CDF800A006F12800AB
:10140000756900EBCA0AD346102C38BF00F0F8FA11
:101410003168009821FA00F2D30704D408FA00F0EA
:101420000843306007E0DAF80800316988422CBFD1
:10143000834600F0E5FACAF80850CBF80C50C5F81E
:1014400008B0C5F80CA0B76009F1080401987061F4
:1014500050E07068C0B329463046FFF7EEFD040047
:1014600011D047E015F1400F28BF4FF0FF350AD2E9
:101470000B35ED087068ED0028B129463046FFF7BE
:1014800019FC040036D1B068A8421DD3411B726913
:1014900010290AD350197061B16041F00103436013
:1014A000415045F0030555600BE00021B1607161CA
:1014B000131D40F003015160111D1C5844F001043C
:1014C0000C5002F1080415E0F06885420DD2401B73
:1014D000B169F0604A19B26140F00100506045F016
:1014E00003054D6001F1080404E029463046FFF78A
:1014F000F7FA0446AFF300802046FFF7EEBA002863
:1015000000D170472DE9F047A0F10805AFF3008046
:10151000DFF8E06431698D42C0F05982686800F0FC
:101520000302012A00F05382C2084FEAC209C2072F
:1015300005EB090839D42C6810F0030F00F049823C
:10154000604205448D42A144C0F0418270698542E9
:1015500000F0C680E408202C5ED2D5F80CA0AF685D
:10156000554508BF00F04CFABD4208BF00F048FAEC
:101570006868C008C000B0EBC40F18BF00F040FAA4
:1015800006F1280000EBC400874205D031698F4284
:101590003FD3FA68AA423CD1BA452CD13068012128
:1015A00001FA04F420EA04043460454580F00F8217
:1015B000D8F80440E00740F10A82A10700F16881F1
:1015C000B069804540F09F80F168B5618944C6F8F4
:1015D0000C9049F00100686071698D4202D10020D1
:1015E0007061B060F069484580F0F38100213046B9
:1015F000FFF728FBEDE1824506D03069824508D32C
:10160000DAF80810A94204D1C7F80CA0CAF808708B
:10161000CBE700F0F5F9C8E7EC68AF69AC420BD056
:10162000A868884222D3C168A94204BFA268AA421E
:101630001CD1C460A0601BE005F11402146834B929
:1016400005F1100214689CB101E01A46146804F117
:1016500014031868002802BF04F11003186800285A
:10166000F3D18A4202D30021116001E000F0C8F9F1
:10167000002F9AD0E96906F5987000EB81000268A6
:10168000954209D10460200011D1E86971680122F6
:1016900082409143716088E73069874205D3396998
:1016A000A94214BF7C613C6101E000F0A9F9002C63
:1016B0003FF47BAF31698C42ABD3A761286928B175
:1016C000884226BF2061846100F09AF96869002889
:1016D0003FF46BAF316988429BD36061846164E7FA
:1016E00098F8040000F0030003287FF45EAFC6F80A
:1016F000089049F00101D8F8040040084000C8F8FB
:10170000040069600AE0706980450AD1B1687561BA
:101710008944C6F8089049F00100686045F80990CE
:1017200057E1E408E400A144E408202C3AD2D8F8B8
:101730000CA0D8F80870D04508BF00F061F9B84592
:1017400008BF00F05DF9D8F80400C008C000B0EB95
:10175000C40F18BF00F054F906F1280000EBC400D4
:10176000874207D031698F42C0F08580FA684245D0
:1017700040F08180BA4507D13068012101FA04F4B4
:1017800020EA0404346078E0824506D0306982455E
:1017900071D3DAF8081041456DD1C7F80CA0CAF82A
:1017A00008706AE0D8F80C40D8F8187044450DD09D
:1017B000D8F808003169884223D3C268424504BF83
:1017C000A16841451DD1C460A0601CE008F114016E
:1017D0000C6834B908F110010C68A4B101E011469D
:1017E0000C6804F114021068002802BF04F1100212
:1017F00010680028F3D13069814202D300220A60C8
:1018000001E000F0FDF8002F37D0D8F81C1006F5E5
:10181000987000EB8100026890450AD104602000B6
:1018200012D1D8F81C007168012282409143716086
:1018300023E03069874205D33969414514BF7C6193
:101840003C6101E000F0DCF8BCB131698C4212D39C
:10185000A761D8F8100028B1884226BF20618461B2
:1018600000F0CEF8D8F8140038B13169884202D3BC
:101870006061846101E000F0C3F849F00100686034
:1018800045F8099071698D420BD1C6F80890A0E027
:1018900064086400C8F8044049F00100686045F835
:1018A00009904FEAD907202F22D206F1280000EB39
:1018B000C704A046B9F1100F38BF00F0A1F8306896
:1018C00020FA07F1CA0705D4012101FA07F70743F7
:1018D000376006E0A068316988422CBF804600F07E
:1018E0008FF8A560C8F80C50C5F80880EC6070E06F
:1018F0005FEA192008BF002123D0B0F5803F28BF40
:101900001F211ED2A0F58072120C02F00802904036
:10191000A0F58051090C01F004018840A0F5804336
:101920001B0CC2F10E0203F00203521AD21A9840A5
:1019300002EBD032D01D29FA00F101F0010101EBD8
:10194000420106F59872002302EB8100E9616B61A8
:101950002B61726822FA01F3DC0707D4012303FA32
:1019600001F1114371600560A8611DE002681F2943
:101970001DBF4908C1F1190109FA01F1494600E00A
:1019800002465068C008C000484526D002F1100346
:10199000C80F03EB8003490018680028F0D13069B4
:1019A000834204D31D60AA61ED60AD6001E000F0E8
:1019B00027F8306A401E30620BD1D6F8C80100E02B
:1019C00080680028FCD14FF0FF30306201E000F069
:1019D00017F8AFF30080BDE8F087316990688A425C
:1019E00028BF8842E3D3C5609560A860EA60002004
:1019F000A861DEE79CECFF1F30BC002070470000B0
:101A0000012000F033B830B4002513E050F8042B67
:101A1000D30744BFA9F101039A18091F042942F80A
:101A2000045BFAD213468C0744BF15809B1CC90780
:101A300048BF1D7050F8041B0029E7D130BC704727
:101A40000749086808B1002070470648C008C00070
:101A500008600549C908C900091A0160704700BF3C
:101A600004F1FF1F17F5FF1F10F6FF1F80B500F0F0
:101A700007F8024A11001820ABBEFBE7260002005F
:101A800080B500F054F802000023DB431068984250
:101A900004D011000220ABBE0020106050689842B4
:101AA00004D0111D0220ABBE0020506001BD00001B
:101AB000F0B583B0040000F03AF8A10047183D6883
:101AC0000026F643B54216D100F01AF83D68B5423B
:101AD0000FD100BF09A00090002C01D1002000E030
:101AE000042001900320029069460120ABBE05004E
:101AF0003D6000F014F8280003B0F0BD3A747400A3
:101B00000C480121BFF35F8FD0E84F3FC0E8421F70
:101B1000002AF9D1BFF35F8F002BF3D1704705483E
:101B2000BFF35F8F00210170BFF35F8F70470248E2
:101B3000704700000FF1FF1F70AAFF1FC178827865
:101B400042EA01224178007841EA022140EA01207C
:101B5000704770B504460D46A06A002685420BD03A
:101B6000607801232A4604F12C0100F014FD10B125
:101B70004FF0FF350126A562304670BD0269891E0F
:101B8000921E914201D3002070474289406A02FBB5
:101B90000101084670472DE9F0410C460568022C0A
:101BA0006CD32869844269D2297801294FF0FF3625
:101BB00004D063D3032949D030D35FE0A889E96911
:101BC00004EB5408B8FBF0F041182846FFF7C1FFBA
:101BD000002854D1A88908F10107B8FBF0F100FBF7
:101BE000118805F12C02E96912F80880B7FBF0F0C2
:101BF00041182846FFF7ADFF002840D1A889B7FB60
:101C0000F0F100FB117705F12C00C25D48EA0226D5
:101C1000E00754BFC6F30B06360930E0AA89E9692C
:101C20005208B4FBF2F041182846FFF792FF30BB90
:101C3000A8896400B4FBF0F100FB114405F12C000D
:101C400020444278067846EA022618E0AA89E96923
:101C50009208B4FBF2F041182846FFF77AFF70B9FA
:101C6000A889A400B4FBF0F100FB114405F12C009D
:101C70002044FFF763FF20F0704600E00126304665
:101C8000BDE8F0812DE9F04105460E462F68B6F516
:101C9000001F3FD216F01F0F3CD1AC682E6154B923
:101CA0003878032801DB3C6A2CB9398970098842ED
:101CB00030D2386A29E07989B88900FB01F806E05A
:101CC000022C27D33869844224D2A6EB0806464565
:101CD000214617D32846FFF75EFF044614F1010F93
:101CE000EED10120BDE8F081B989B6FBF1F2101800
:101CF000A86101FB1266B81900F12C01E96100200E
:101D0000BDE8F0813846FFF739FFA8616C61A8692A
:101D10000028E9D10220BDE8F08102461278CB7E8E
:101D2000887E032A40EA032005D14A7D097D41EAE5
:101D3000022140EA014070472DE9F0420D4600F1D2
:101D400020062C6820220B21304600F05BFC00218D
:101D500000234FF0080E0FF60409DFF808C605E06F
:101D6000BEF10B0F34D008214FF00B0EE25C5B1C70
:101D7000202A29DD2F2A18BF5C2A06D1E05C2F28F3
:101D800014BF5C285B1CF9D01EE02E2AE8D07145F8
:101D90001ED2802AA4BF0CEB020010F8802C4F4604
:101DA0003878C0B1904218BF7F1CF9D113E0307869
:101DB000E52804BF05213170202AD4BF042000206B
:101DC000F0720020BDE8F082E01800292860EED112
:101DD0000620BDE8F0820028FAD1A2F161001A289D
:101DE00038BF203A7254491CC0E72DE9F347044636
:101DF000D4F8009002E00198411C0191019800780C
:101E00002F2818BF5C28F6D00020A0600199087820
:101E100020281DD2802284F82B2000212046FFF7A5
:101E200031FF0746C4E0400700F1C280A179C8062F
:101E300040F1BD802069B9F80C10B0FBF1F201FB54
:101E4000120009F12C0101444846FFF766FFA0602B
:101E500001A92046FFF770FF070040F0A98026681F
:101E6000A5680027276155B93078022801DD356A59
:101E70002DB93089002800F0A780306A9EE0718972
:101E8000B08900FB01FA08E0022DC0F09D803069A6
:101E9000854280F09980A7EB0A0757452946C0F094
:101EA0008A802046FFF777FE054615F1010FEBD13A
:101EB00001278CE0B189B7FBF1F21018A06101FB9A
:101EC000127706F12C0038441EE07889401E024249
:101ED00010D12046FFF75FFE022875D310F1010FE5
:101EE000E6D0396988425DD2606101463846FFF725
:101EF00045FEA061C4F81080B889B8FBF0F100FB82
:101F0000118807F12C004044E0610027D4F81880C4
:101F1000B06A80450CD070780123424606F12C014E
:101F200000F039FB10B14FF0FF380127C6F82880C8
:101F300038004CD1E2691078002847D0D07A00F000
:101F40003F00A071D07A010711D40B2104F12003C6
:101F500015781878281A491E08D038B95578587855
:101F6000281A9B1C921C491E0028F1D078B32069C6
:101F70002768A16900F1200841B3B8F5001F25D2F8
:101F8000B889B8FBF0F200FB12800028B2D1491CDE
:101F9000A1616169002998D139894FEA58108842B6
:101FA000A8D301E00020A0610021A1610EE0052777
:101FB0003846BDE8F6873046FFF7E0FDA061656171
:101FC000A06900287FF476AF022700E0042794F888
:101FD0002B0039003FF427AF042FE9D14007E7D4A5
:101FE000E5E703464FF0FF301A68002A00D170473A
:101FF00010B414462178212907D33A2918BF641C4C
:10200000F8D102E0002010BC70473A29FAD112F84A
:10201000011B30390A29F6D2A24208BF0029F2D1A9
:10202000621C1A60002010BC704710B504460022E4
:102030004FF0FF33E270A362FFF78BFD08B104207D
:1020400010BD04F22A204AF655224178007840EA71
:102050000120904201D0032010BD04F12C00017832
:10206000E92904D0EB2904BF8078902811D104F12C
:102070006200FFF763FD20F07F40BB49884206D035
:1020800004F17E00FFF75AFDB849884201D10020D3
:1020900010BD022010BD2DE9F8430C4684B000218C
:1020A0002160FFF79EFF070048BF0B2000F124814D
:1020B000DFF8BC8208EB870045680DB90C201BE1F6
:1020C0002560287828B1687800F050FAC00740F100
:1020D0001281002028706F70687800F051FAC007F4
:1020E00048BF032000F10881687805F10C02022145
:1020F00000F06EFA002868D1A889A0F5007140F6BA
:102100000162914261D2411E08425ED10024EC700E
:102110004FF0FF36AE6205F12C07687801230022EC
:10212000394600F038FAA0BBA8624AF6552205F2FB
:102130002A204178007840EA0120904240F0D28085
:102140003878E92804D0EB2804BFB87890280FD15C
:1021500005F16200FFF7F2FC20F07F4082498842DF
:1021600038D005F17E00FFF7E9FC8049884231D084
:1021700000216A4605F5F573187960B1D87A9C7A22
:1021800044EA0024587A40EA0424187A40EA0420F9
:1021900001E0AE6219E0491C1033042942F8040B37
:1021A000EAD30026E946D9F8004024B12146284662
:1021B000FFF73BFF00E00320012804DD761C042E1E
:1021C00009F10409EFD3042801D1012094E001288A
:1021D00000F38880387BF97A41EA0021A88981429E
:1021E00040F08080F97DB87D50EA012004BF05F100
:1021F0005000FFF7A3FC6861397CA970012918BF62
:1022000002296FD148430646787B6881010069D076
:10221000421E104266D1B97C787C40EA0120A9892F
:102220002881490990FBF1F201FB1200002859D1E5
:10223000387DF97C51EA002104D105F14C00FFF70B
:102240007DFC0146F87BBA7B52EA00224AD0AB897A
:1022500028895F0906EB020C90FBF7F39C4461456B
:1022600040D36B89A1EB0C01B1FBF3F1002939D00C
:1022700003274FF6F673994238BF022740F6F673EC
:102280009942AC6138BF0127891C12196444032F9D
:102290002961EA616C620FD105F156014A7809782B
:1022A00051EA022108BF00281CD105F15800FFF7B0
:1022B00045FC296989000CE0A0B1E869296930185A
:1022C000022F0FBF490001EB410201F0010101EBB8
:1022D00052012862A889421E5118B1FBF0F06969C9
:1022E000814201D20D2007E02F70B8F80000401C99
:1022F000A8F80000E880002005B0BDE8F08303B531
:1023000081B039B1087821280ED33A2818BF491C6A
:10231000F8D109E00B2003B000BD002201A902A8FA
:10232000FFF7B9FE03B000BD3A2809D1029B13F8AC
:10233000010B30380A28EDD28B4208BF0028E9D1C2
:102340000B49486808B100230370019808B10023C5
:102350000370019B01984B6008B1012ADDD0002079
:1023600003B000BD18740000464154004641543388
:10237000E8F0FF1FF3B504008DB008BF092018D0A6
:1023800002F001052A4669460EA8FFF784FE060002
:102390000CD100980E99019001A8FFF726FD0600C8
:1023A00004D19DF82F00010605D5062600202060E7
:1023B00030460FB0F0BD9DF80A00C10648BF0426A4
:1023C000F4D4089F00983946FFF7A7FCA06007F1F6
:1023D0001C00FFF7B3FBE060009820600099C888FC
:1023E000A080002125746174E1616161E0E72DE95D
:1023F000F0470646994600208846C9F80000002E9E
:102400001CBF31680029154614D0087890B1C888DF
:10241000B28890420ED1487800F0A8F8C00709D4DD
:10242000707C376801007BD1307CC10705D4072060
:10243000BDE8F0870920BDE8F087F0687469041BE7
:10244000AC4234D92C4632E002286BD310F1010F94
:102450006CD0B061B2693869921E801E824261D22E
:102460007889796A00FB0212002A5BD0B989AA1820
:10247000B4FBF1FABAF1000F2DD00AEB0501884246
:1024800038BFA0EB050A78785346414600F083F840
:1024900000284BD1BD890AFB05F5706928187061C9
:1024A000A844D9F800106918C9F80010641BB4B327
:1024B0007169B889B1FBF0F500FB151060B9788936
:1024C000401E0540C6D100290FBFB068B169304633
:1024D000FFF761FBB8E7F2617069B9890A1AB0FBCE
:1024E000F1F001FB00202546844288BF0546F169D2
:1024F0003846FFF72EFBC8B97269BB89B2FBF3FC03
:1025000003FB1C22BA1828462C3200284146C4D0AE
:1025100012F8013B01F8013B401EF9D1BDE7002054
:10252000BDE8F08702207074BDE8F0870120FAE76B
:1025300010B504001CBF216800290DD0087858B1DF
:10254000C888A288904207D1487800F00FF8C007E9
:1025500002D40020206010BD092010BD222A2B2C9F
:102560003A3B3C3D3E3F5B5D7C7F0000010003D079
:10257000411E022903D901E0002070470120704765
:1025800018B1401E022802D903E000F059B800201B
:10259000704701207047F8B504460D4616461F46A1
:1025A00000203CB1641E022C11D90FE0761C05F509
:1025B0000075641CBC420AD24FF4007271022846B6
:1025C00000F08BF90100F1D00120F2BD0420F2BD32
:1025D000034600201BB15B1E022B11D90FE003291B
:1025E0000DD8DFE801F00D080402082105E04FF4E2
:1025F0000073138070474FF48041116070470420CE
:102600007047000062F30F2262F31F4200B500BF63
:10261000130096469446103928BFA0E80C50FAD80B
:102620005FEA417C28BF0CC048BF40F8042BC907B3
:1026300028BF20F8022B48BF00F8012B00BD000086
:1026400018B589B01A2102A800F004FA0021CDE9DA
:1026500000114FF48030012100F000FA0021012028
:102660008DF802108DF805108DF800006A460121E2
:1026700000F002FA0121012000F057FA00232B227A
:102680000221012000F05BFA00232822042101200E
:1026900000F055FA002329222021022000F04FFAF1
:1026A00004228DF81720002001228DF81C20012122
:1026B0008DF816008DF819008DF81800ADF814008B
:1026C0008DF813008DF81A108DF81B008DF81D0081
:1026D000ADF81E00ADF820008DF808108DF8090047
:1026E0008DF80A108DF80B008DF80C1005228DF86E
:1026F0000D2002A9DFF84C43204600F057FA0121D3
:10270000204600F020FB00200AB010BD38B504467A
:10271000DFF830530121284600F046FB0028F9D0AD
:102720002146284600F027FB0021284600F03CFB0C
:102730000028F9D02846BDE8324000F031BB80B512
:102740000121012000F0F9F90620FFF7DFFFBDE8C5
:1027500004400121012000F0E8B970B588B0684656
:1027600000F052FD0098B84AB64EA0FB02214C0A78
:102770000121012000F0E1F90520FFF7C7FF002546
:102780000121304600F010FB0028F9D0FF2130462F
:1027900000F0F1FA0021304600F006FB0028F9D0E5
:1027A00030460068C0B2641E01D0C107E8D40128D9
:1027B00008BF09250121012000F0B7F9284608B01B
:1027C00070BD10B50446B4F5800F01D3012010BDD3
:1027D0000121012000F0B1F92020FFF797FF20022E
:1027E000000EFFF793FF2004000EFFF78FFFE0B20B
:1027F000FFF78CFF0121012000F097F9FFF79FFF01
:10280000BDE81040A9E72DE9F04105460F46002636
:102810008E488742904605D225B1444640F20110C9
:10282000844202D30120BDE8F081FFF788FF012137
:10283000012000F082F90220FFF768FF3802000E45
:10284000FFF764FF3804000EFFF760FFF8B2FFF7F0
:102850005DFFB8F1000F1AD07A4FB0B2641E15F8C0
:1028600000800121384600F09FFA0028F9D0414647
:10287000384600F080FA0021384600F095FA00282A
:10288000F9D038460068C0B2761C002CE5D1012191
:10289000012000F04AF9BDE8F0415EE7F8B50D46C9
:1028A00005F0FF07C7F580771646BFB2B74204466A
:1028B000A8BF37463A4629462046FFF7A4FFB0B2E4
:1028C000B84209D03C447D19F61BB7B2B7F5807FFA
:1028D00088BF4FF48077EDE7F1BD2DE9F041054663
:1028E0000F465A48002687421446B04600D20DB91A
:1028F000012635E0FFF723FF0121012000F01DF93B
:102900000320FFF703FF3802000EFFF7FFFE380435
:10291000000EFFF7FBFEF8B2FFF7F8FE20001BD019
:10292000484F641E0121384600F03EFA0028F9D0D5
:10293000FF21384600F01FFA0021384600F034FA33
:102940000028F9D038460068C0B21FFA88F1002C80
:10295000685408F10108E4D10121012000F0E5F8F4
:102960003046BDE8F0812DE9FE4F384C0023A142EE
:102970008DF8003000D210B901238DF80030C1F37A
:102980000B05C5F580540F0BA4B29442A8BF1446A2
:102990008246019116464FEA073BDFF8B4804FF4B8
:1029A000805259464046FFF798FF4544002029468B
:1029B000A04235DA11F8012BFF2A08BF401CF7D0DE
:1029C0002EE04FF480794A4659464046FFF71BFFF8
:1029D000A8B248450ED0C844CB44A5EB09051FFA60
:1029E00085F9B9F5807FEED9EBE70199224650468B
:1029F000FFF754FFB0B2A04204D19DF8000003B02D
:102A0000BDE8F08FA2440198361B7F1C00252018DA
:102A1000B4B2B4F5805F019088BF4FF48054BAE738
:102A2000A042E2DA5846FFF7CCFE012C07DB514604
:102A3000204611F8012B05F8012B401EF9D14FF467
:102A40008055BEE700C00140986E1283010040002F
:102A50009CDAFF1F0022FFF7D9BD0000DFF8142029
:102A6000012907BF116821EA0000136818431060AC
:102A70007047000004800440F0B4474B474D4AF2D1
:102A800001541C8005EB801500240120A040014268
:102A900040D056782F8866F38E372F8096782F880F
:102AA00066F30C372F80D6782F8866F349272F805E
:102AB00016792F8866F386172F8096792F8866F30C
:102AC00082072F8056792F8866F305172F8010789C
:102AD000002803D0022813D009D315E02E88C6F3AE
:102AE0000E062E804FF6FD702F88074006E02E88D8
:102AF000C6F30E062E802F8847F002072F8003E0D2
:102B00002E8846F400462E80A81CD679078866F3E6
:102B100008270780641C2D1D102CB6D34FF42540C8
:102B20001880FFE70020F0BC70471D4A02EB00123E
:102B3000106801431160002070471A4AF6E7F0B5AB
:102B4000154C194E4AF20155258006EB80160025DA
:102B500001274FF6FF6007FA05FC11EA0C0F12D0AF
:102B6000B6F800C062F3050CA6F800C0012BB6F859
:102B700000E00CBFBC464FF0000C00EA0E0E4EEA1F
:102B80000C2EA6F800E06D1C361D102DE3D34FF47B
:102B9000254020800020F0BDFC3B0540003C054066
:102BA000083805400A380540023C05400422DFF899
:102BB000743298421CBFDFF870C2604508D0DFF85D
:102BC0006C3298421CBFDFF868C2604540F0B980A3
:102BD000002900F0B6800A7D012A1ED10A78836997
:102BE00062F3CF3383618A78836962F38E338361C2
:102BF0000A79836962F34D3383614A78C36862F36B
:102C00001653C360CA78C36862F31A63C3604A7913
:102C1000C36862F31E73C36017E0826922F4004246
:102C20008261826922F480428261826922F40052C8
:102C30008261C26822F4E002C260C26822F0E062EF
:102C4000C260C26822F0E042C2608A7CCAB98A7956
:102C5000836962F347138361CA79C36862F3082307
:102C6000C3600A7AC36862F34923C3604A7AC368BF
:102C700062F38A23C3608A7AC36862F3CB23C3609A
:102C800013E0826922F0E0028261C26822F480725D
:102C9000C260C26822F40072C260C26822F480621C
:102CA000C260C26822F40062C260CA7AC36862F37A
:102CB0008613C3604A7CC36862F30103C3600A7C65
:102CC000836962F30C338361CA7B836962F30B23EC
:102CD00083618A7B836962F3840383610A7B8369EE
:102CE00062F3410383614A7B836962F3000383617A
:102CF0008A7C436862F300034360CA7C436862F3E2
:102D0000410343600A7D436862F3C30343604A7D25
:102D1000436862F3C71343608A7D436862F30C33F0
:102D20004360CA7D436862F34D3343600A7E436863
:102D300062F3CF334360497E426861F38E32426072
:102D400000221046704702460420DFF8D8309A422D
:102D50001CBFDFF8D4C0624507D0DFF8D0309A42FC
:102D60001CBFDFF8CCC0624504D1506861F3861007
:102D700050600020704702460420DFF8A8309A42D5
:102D80001CBFDFF8A4C0624507D0DFF8A0309A422C
:102D90001CBFDFF89CC0624501D111600020704764
:102DA0000068C0B270470000024610B400201D4BFE
:102DB0009A421CBF1C4CA24205D01C4B9A421CBF1D
:102DC0001B4CA2422BD1062929D8DFE801F00409C7
:102DD0000E13181D2500506910BCC0F3C0107047B9
:102DE000506910BCC0F340107047506910BCC0F36C
:102DF00000107047506910BCC0F3C00070475069A4
:102E000010BCC0F3800070475069400800F001001A
:102E100010BC80F001007047506900F0010010BC48
:102E20007047000000C0014000C4014000000240A3
:102E300000040240C0B1DFF888154AF201520A804E
:102E400002788B7C03F07F0343EAC2138B744278D1
:102E50008B7C62F386138B7480788A7C60F3051216
:102E60008A744FF425400880704718B4014600204A
:102E7000DFF84C2500904AF201531380DFF8443507
:102E8000A1B9197801F00701032901D1012045E01A
:102E9000DFF834150C68C4F3C01111B91979CC07E7
:102EA000F4D5197B41F001011973F0E7197B01F0AA
:102EB000FE011973997D009C641C0094009CB4F57C
:102EC000805FE4D2C1F3C0010029F3D0DFE781B015
:102ED00001460020DFF8E82400904AF201531380F5
:102EE00079B9DFF8E0140B7803F00703042B08BF6F
:102EF000012012D0DFF8D4140B7843F001030B70DB
:102F00000BE0DFF8C8140B7803F0FE030B70009998
:102F1000491C009100990529F9D308E04FF4254197
:102F2000118012BC70474FF42540088070474FF461
:102F30002543138001B07047DFF884144AF2015230
:102F40000A80DFF88424136860F3C7131360EAE78C
:102F5000002800D1704710B4DFF86C140A68DFF85D
:102F600060244AF20153138004680B68641E64F302
:102F70001F730B6043680C685B1E63F31B640C607B
:102F800083680C685B1E63F317540C60C3680C689D
:102F90005B1E63F310240C6000690B68401E60F335
:102FA00004030B6051E018B401460020DFF8102440
:102FB00000904AF201531380DFF8083451B91978B0
:102FC00001F0070105291DBF1C7944F001041C71A3
:102FD0000120A3E7197901F0FE011971997D009C88
:102FE000641C0094009CB4F5805FF2D2C1F34011E0
:102FF0000029F3D0EDE7002800D1704710B4DFF8C6
:10300000C8130A68DFF8B8234AF201531380046832
:103010004B68641E64F31F734B6043684C685B1E0F
:1030200063F31B644C6083684C685B1E63F3175446
:103030004C60C3684C685B1E63F310244C600069ED
:103040004B68401E60F304034B604FF42540108032
:1030500010BC704781B0002100914AF20152DFF8A4
:103060006013DFF86C330A80012893F800C00CBFAE
:10307000002201220CF0FE0C42EA0C021A704FF4FE
:1030800025420A80997B009A521C0092009AB2F560
:10309000805F07D201280CBF01220022C1F38011FA
:1030A0009142EFD1002001B0704738B485B00021C3
:1030B000DFF8202300911368DFF8081304935468A5
:1030C000039493680293D46801940B7803F0070388
:1030D000052B18BF05280DD1DFF8FC3213604FF027
:1030E000FF3353609360D360009B5B1C0093009B95
:1030F000B02BF9D34AF20154DFF8C4321C800D78AA
:1031000060F302050D704FF42540188000210091F6
:103110000098401C00900098B028F9D304981060E3
:10312000039951600298906000200199D16000904D
:103130000098401C00900098B028F9D306B030BC2D
:1031400000F05AB9DFF87C02007800F00700704701
:1031500070B485B00021DFF87C220091002813684C
:1031600004935468039493680293D468019447D0FD
:10317000DFF868128B7903F00703052B0DD1DFF818
:10318000583213604FF0FF3353609360D360009B5D
:103190005B1C0093009BB02BF9D34AF20154DFF87B
:1031A00020321C808578C478067945EA0415447974
:1031B00045EA0625867945EA04354478007845EAEB
:1031C000064545EA045545EA00650D604FF4254182
:1031D0001980002300930098401C00900098B028AC
:1031E000F9D3049810600399516002989060019996
:1031F000D16000930098401C00900098B028F9D34B
:1032000005B070BC70470000002800D1704770B452
:10321000DFF8C821917901F0070104290DD8DFE812
:1032200001F0030609060900DFF8B41123E0DFF816
:10323000B41120E04FF400411DE0DFF88C110E685E
:103240000B680C680D681B0FC4F3082405F01F05FC
:103250005B1C641C6D1CC6F3C01129B9DFF8841116
:10326000B1FBF5F14C4304E0DFF87461B6FBF5F512
:103270006C43B4FBF3F1016013681B0E03F007030A
:10328000D9404160016813681B0D03F00703D94062
:1032900081600168136803F00703D940C1600168C9
:1032A0001368C3F30213D9400161016813681B0A54
:1032B00003F00703D9404161016813681B0B03F059
:1032C0000703D940816101681268120C02F00702FD
:1032D000D140C16170BC704730B485B00021DFF8C7
:1032E000F420009113680493546803949368019345
:1032F000D468DFF8F4300294997801F007010529C9
:1033000016D1116841F4803111605468DFF8DC1087
:103310000C435460019C64F400449460D16841F013
:103320001301D1600099491C00910099B029F9D38B
:103330004AF20154DFF888100C801D7805F00F0563
:1033400045EA00151D704FF42540088000210091CA
:103350000098401C00900098B028F9D304981060A1
:10336000039951600198906000200299D16000900B
:103370000098401C00900098B028F9D305B030BCEC
:1033800070470000032815D8DFE800F002050A0F97
:103390001748007810E016480178C1F3C000704764
:1033A00013480178C1F34010704711480178C1F308
:1033B000801070470E4A5079FFE700F00100704717
:1033C000FE4305402640054000410540204405409D
:1033D0002E40054000800440EEFAFFFF20400540EB
:1033E0000024F40000127A002440054009010F0077
:1033F0003C40054000BF00001F48007800F0070077
:10340000052800D9704730B4DFE800F003080D0844
:103410000D131A491A48086030BC70471748194AFA
:10342000026030BC7047154A4FF40041116030BC57
:103430007047154B114C186819681A681B68090405
:10344000090E120F03F01F03C0F3C010521C491CD9
:103450005B1C40B90B48B0FBF3F04143B1FBF2F009
:10346000206030BC7047064DB5FBF3F35943B1FB08
:10347000F2F1216030BC70472640054078AAFF1F5A
:103480000024F40000127A00004105407CB5064695
:103490000020DFF83047009025460120C046C04696
:1034A000F168086900906D1E16D00098C00FF4D026
:1034B000009840F00100009000980861F0680169F0
:1034C0000091641E05D00120C046C0460098C10787
:1034D000F4D40320C046C046002076BD90F803C057
:1034E000BCF1000F0FD1DB1C4FEA630C00EB820034
:1034F00003EB9C739B10D0F8DC0004D051F8042B34
:1035000002605B1EFAD100207047D21C531002EB00
:1035100093729210D0F8DC0004D0036841F8043BA9
:10352000521EFAD108467047014600200969896891
:10353000490801F00301032908D8DFE801F002047B
:103540000604032070470220704701207047C068BE
:10355000406900F0010080F001007047C1684869CF
:1035600089690840704770B4002201244023012972
:10357000C2708470838009D1C1720C23037005244A
:10358000DFF8442644704FF4A07109E059B9C172C4
:10359000102303700724DFF8342644704FF47C7145
:1035A0000223C180037202F500610161C260002143
:1035B00000F1180302F5106406E01C6004F50075C4
:1035C0001D64491C20341B1D4578A942F5D302F522
:1035D000806100F1D803416102F588641C6000211C
:1035E00000F1980402F5A06503E044F8045B491C6F
:1035F00020350678B142F8D3002100F1DC0402F551
:10360000805504E044F8045B491C05F580550678B4
:10361000B142F7D302F560625A643DE110B5044649
:10362000FFF734FFE068217A0129C1680ED121F04B
:10363000400141F01001C1602046FFF727FFE0780C
:1036400001280CD1E0682A21816008E041F04001A6
:10365000C1602046FFF71AFF1420C046C046E0783C
:10366000012806D1E068816821F01E0141F02A019D
:103670008160002010BDC068816841F0010103E055
:10368000C0688168490849008160002070471CB506
:10369000044600200090009A42F020020092009818
:1036A00061F38A1000900098E1680861E0680169A0
:1036B00000910120C046C0460098C0F34010002889
:1036C000F4D115E01CB5044600200090009941F0AB
:1036D000100100910098E1680861E06801690091BB
:1036E0000120C046C0460098C0F300100028F4D165
:1036F0000320C046C046002016BD80B5C068C26821
:1037000022F0C042012908BF42F0005202D009B99C
:1037100042F08042C2603220C046C046002002BD56
:10372000F8B501460A69106820F4C0501060C87AE4
:10373000012812D11068DFF8984440F003001060AF
:103740008023C8684362846200F5847000230360AC
:1037500043608360C3600361436100201061002304
:1037600053614FF0FF309061D361002501F11806DD
:10377000FF234FF090444878854217D23768386865
:10378000C00F18BF204638606D1C00203861BB6038
:10379000361DF0E737683868C00F18BF204638601C
:1037A0006D1C00203861BB60361D02E0002501F170
:1037B000580648788542EDD3506820F002005060EA
:1037C000084600F002F80020F2BDC268DFF80414D9
:1037D000002393614FF0FF3C6FF080435361C2F8C8
:1037E00004C05361DFF8F0339361C07808B9DFF8A3
:1037F000EC139069884301439161002070470000F9
:1038000001698B68806902685B0803F00303032B7E
:1038100009D8DFE803F002020502D20AD20202E070
:10382000032363F30A020260486840F48070486032
:103830000020704770B44A780B78012A07D100EB5A
:1038400083020125946905FA03F39BB206E000EBBD
:1038500083040122A46D02FA03F31B042568C5F357
:10386000C032AAB98E68DFF878231540CA78C988B3
:10387000C6F30A069204354302F440228905154333
:1038800001F070710D4345F0805545F40045256009
:103890000069C1690B43C361002070BC70470A789E
:1038A000497800EB82034FF0010C0CFA02F2012977
:1038B00007BF996992B2996D120400230B600069E9
:1038C000C16921EA0202C26100207047F0B40246D9
:1038D00008784B7802EB80044869012B5FD1A3691B
:1038E0001D681E6906F0604610B946F4002610E017
:1038F0008F68C0F312033818401EB0FBF7F0B94FC1
:103900001E4307EAC047C8783E43012808BF60F35A
:103910005E76A3691E61D078012807D102F11803F1
:10392000087853F82040086960610CE0CB78012BDF
:103930000CD0486990B113695C6B91F900000126C5
:10394000864034435C63C878012807D110698068D9
:10395000C00554BF45F0005545F0805502F11800F0
:103960000B7850F8234045F004452560C8780128BD
:1039700002BFCB68D07800284ED1888A0978C01C55
:10398000441002EB810200EB94708010D2F8DC103E
:1039900042D053F8042B0A60401EFAD13CE0A56DDA
:1039A0002B682D698E6838B905F06045C6F312069C
:1039B000354345F4002511E03018401EB0FBF6F009
:1039C000884F6FF3DC4507EAC0473D43C5F3C94064
:1039D000464366F31205C5F312004861A06D056108
:1039E000D478012C06D102F158000C7850F82450FC
:1039F00008696861CC78012C06D14879002814BF89
:103A000043F0005343F0805302F15800097850F816
:103A1000212043F0044313600020F0BC70477CB4C5
:103A20000246002000904B784869012B39D19369F8
:103A30001C681D69009520B96B48054045F40025B8
:103A400010E08D68854205D24D61009865F306004F
:103A5000009003E0009D60F3060500950120009DA5
:103A600060F3D445009500981861D578012D06D1F2
:103A700002F118000D7850F825600869706144F073
:103A800004441C60D07800283BD14869002838D015
:103A90001269536B91F9000001248440234353635E
:103AA0002FE00C7802F1580353F824301D681B698D
:103AB00000931E464C4B1E4048B1C8698B68984223
:103AC00088BF18464861087D00F07F00064346F431
:103AD000002602F15800009650F824300098186132
:103AE000D378012B06D102F158000B7850F823400F
:103AF000086960615832097852F8210045F00445A0
:103B00000560002076BC70474A780978012A00EBEE
:103B1000810009D181690A68D00F18BF42F0804244
:103B200042F400120A6004E0806D016841F4001163
:103B30000160002070474A78012A04D10B7800EB1D
:103B40008300806903E00A7800EB8200806D0268E0
:103B5000C97822F40012032914BF022942F08052CE
:103B600002600020704701698869C9690840000C3B
:103B70007047024602EB8100816D886811694969CE
:103B80000840704701698869C969084080B2704778
:103B900000F5707140220A608A60CA601349826D24
:103BA00011610021C27880F85416012A08D1826D73
:103BB00000F22C6151614FF08022806D016802603B
:103BC00070470000A186010000000C400000084082
:103BD0008000400008383C400008008018383C4015
:103BE00000F833FC0000F81F80FFE7FF400008608A
:103BF0003EB500210022CDE900128DF80020012100
:103C00008DF802108DF804106A464FF40041002030
:103C1000FEF732FF6A464FF400710120FEF72CFFD9
:103C200001208DF800008DF802008DF804006A462E
:103C30004FF48041FEF720FF4FF480410120FEF752
:103C400074FF6A4602210220FEF716FF02210220BD
:103C5000FEF773FF6A4604210220FEF70DFF0421E0
:103C60000220FEF762FFDFF890560FF2C060696A2B
:103C700000F06CFB002408B905F12404AC6500F0E9
:103C8000BFFB401E8041C043C00F287003B030BD51
:103C900000B595B0072101A8FEF7DCFE03216846B8
:103CA000FEF7D8FE142108A8FEF7D4FE142103A8BD
:103CB000FEF7D0FE02228DF808208DF809200020A2
:103CC0008DF8040001218DF8060001228DF8051001
:103CD0008DF807108DF80A2001A8FFF739FA0020A7
:103CE0008DF80100022101228DF802108DF80020CC
:103CF0006846FFF79FF80120FFF7B7F80120FFF7AC
:103D0000E6F801200C902A2102220B9108920992D8
:103D10000A920020FFF710F908A8FFF719F900F040
:103D2000ADFB052000F0C6FB00F0B0FB0120FFF763
:103D30003AF90220FFF726FB0128FAD10520FFF708
:103D4000B4F90220079054210722069103920492AD
:103D5000059203A8FFF74FF90120FFF77BF9032035
:103D6000FFF710FB0128FAD10B20FFF7B5FAFFF798
:103D7000E9F90DA8FFF748FA15B000BD38B5FFF70F
:103D800087FFDFF87815DFF870450020086097A5F9
:103D900000F00AFCFEF754FC0122294604F2BC6044
:103DA000FEF7ADFA88B901220FF29451201DFEF7FB
:103DB000E1FA10B9201DFEF7BBFB002229460020C6
:103DC000FEF79DFA08B1012032BDDFF83405DFF8B7
:103DD0003435DFF834250090012104F15C0000F057
:103DE00019FC00F00DFB207830B142F2E861621856
:103DF0001821302000F0B4FADFF810154AF2015013
:103E00000880002032BD80B5FFF742FFDFF8EC14D8
:103E10000020086000F0C8FBFEF712FCDFF8E004A9
:103E2000DFF8E034DFF8E02400900121DFF8E0045F
:103E300000F0F0FB002002BDBFF34F8FDFF8D41479
:103E4000DFF8D4040A6802F4E06202430A60BFF3B8
:103E50004F8F00BFFDE72DE9F84FDFF89C5405F1C7
:103E60005C0000F0F5FB0FF284190122494605F2CF
:103E7000BC60FEF744FA002870D1A86D00286DD010
:103E80008468287830B142F208716A1818211C2021
:103E900000F066FADFF87404DFF860144AF20157A4
:103EA00007804FF425480A68501E8041C00F086003
:103EB0000122DFF858040FF27C41A0F80080281D91
:103EC000FEF758FA002844D12869001F84423DD3E8
:103ED000A86D047BD0F804A0D0F810B00026012C07
:103EE0000ADBA96D4A6AF0B200FB0BA0904768BBE1
:103EF000761CF0B2A042F4DBDFF81014DFF8FC23EC
:103F00000F801068401E8041C00F1060A1F8008033
:103F1000A96D88684968800805D00A6812F1010F08
:103F200014D1401EF9D1281D00F025F970B9281DC3
:103F300000F097F950B9281DFEF7FAFA0022494619
:103F40000020FEF7DCF90020BDE8F28F281DFEF707
:103F5000EFFA002249460020FEF7D1F90120BDE822
:103F6000F28F38B5DFF89003816D4A694B688C6831
:103F700018681D1DE4182D68904207D389698A18B6
:103F8000904203D29D4201D3A54201D3012032BD0C
:103F9000DFF888130B6000F02BF8284600F02CF8AF
:103FA000002032BD7CB4DFF87813DFF87833DFF817
:103FB0005C434FF425424AF2015525801868401EA3
:103FC0008041C00F18602280012000900098461E9A
:103FD00000280096F1D000200190019888423EBF51
:103FE000019E761C0196F8D3F0E70000303A0000FD
:103FF00080F3088870470000004770472DE9F84FAC
:1040000084B0002000908146BB4C207830B142F251
:104010005472224418211C2000F0A2F9B5A50122F7
:10402000294604F2BC60FEF76AF9002840F090804F
:10403000A06D002800F08C80876800BFBDA1012220
:10404000201DFEF797F9060006D12069001F874260
:104050000BD2201DFEF76CFA002229460020FEF745
:104060004EF9042E74D1042073E0C0F30B010191CA
:10407000000BA16DD1F804B039D04AF201519F4E26
:10408000A24FADF808104FF48058824641F2E86024
:1040900020440390FF224146FEF7B4FA03996B4691
:1040A0004246201DFEF7A3F9002851D1039842464D
:1040B000594600F003FC002836D19B4AA9FB022197
:1040C000C90801EB8100B9EB40000AD1BDF8080036
:1040D00038803168481E8041C00F30604FF4254061
:1040E000388009F10109D1450BF5805BCED30198E9
:1040F00020B341F2E8616618FF224FF48051304648
:10410000FEF780FA019A6B463146201DFEF76FF9E3
:10411000002802BF01980099884219D102465946E9
:10412000304600F0CBFB48B1201DFEF701FA00221B
:1041300029460020FEF7E3F807200AE0201DFEF7DD
:10414000F7F9002229460020FEF7D9F8002000E008
:10415000012005B0BDE8F08F48F2040081B001688D
:104160000091009800F47040B0F5004F0CBF0120A2
:10417000002001B070472DE9F04F5F4D296981465D
:1041800083B0A86D0026091F0096C1F30B04090B2C
:10419000D0F804A0B3463AD0584E5C4F02914FF489
:1041A000805841F2E8632B440193FF2241461846B0
:1041B00000F0B8FB01996B4642464846FEF717F9F6
:1041C000002845D1AB6D0199D3F830C04246504626
:1041D000E04701003CD1544BABFB0332D20802EB69
:1041E0008200BBEB40000AD14AF201523A803068AB
:1041F000401E8041C00F30604FF4254038800BF1E5
:10420000010B029883450AF5805ACAD30E4604B3BF
:1042100041F2E8602E18FF224FF48051304600F042
:1042200081FB6B46224631464846FEF7E0F80028FF
:1042300004BF009884420BD114F0030FAB6D18BF7C
:10424000E41C22461C6B31465046A047060000D0B5
:1042500003E000F01BF9304600E0012003B0BDE8A8
:10426000F08F2DE9FE4F694600220A609046002437
:10427000019401AB0422FEF7BAF800B1EDE79DF816
:1042800002209DF803009DF80110120442EA00622A
:104290009DF8000042EA0122024317480169091F04
:1042A000234621D0806D154F4568DFF860C04FF47C
:1042B00025494AF2015E2E781B48A419A3FB00BAD7
:1042C0004FEADA3606EB8600B3EB403008D0ACF8A4
:1042D00000E03E68701E8041C00F3860ACF800906E
:1042E0005B1C6D1C8B42E6D3944218BF4FF0010853
:1042F0004046B3E7303A00000080FF1F8090A7429D
:1043000038AAFF1F90A9FF1F1CAAFF1FFC3B0540F6
:104310005C80FF1F0CED00E00400FA0508ED00E0F2
:10432000F40614000091A742CDCCCCCC466C61734E
:104330006800000050474D4B45592E62696E0000E1
:1043400064456350674D2E62696E000010F8012BC2
:1043500011F8013B0AB19A42F8D0D01A7047000018
:104360002DE9F843174680463C787D784444E4B212
:104370006D18B8F1800FACBF012000204029ACBF00
:1043800001230023802CEDB2CCBF4FF0010C4FF085
:10439000000C402DCCBF4FF0010E4FF0000E184323
:1043A0004CEA00005EEA000003D1A045B8BFA94274
:1043B00002DB0020BDE8F2836D05CE08B6EB156F79
:1043C0001BDAA4EB08044FEA181040F0100908F0BB
:1043D0000F08A6F15000C0B200F010FC484600F0F3
:1043E0000DFC404600F00AFC2146B81C00F00CFC15
:1043F000761CF0B2B0EB156FEBDB0120BDE8F28369
:1044000038B500F01BFC1A210FA000F0E5FB18B92D
:10441000C046C046002032BD0025A5F15000C0B204
:1044200000F0ECFB102000F0E9FB002000F0E6FBC0
:104430008024002000F0FCFB641EFAD16D1CE8B261
:104440000828EAD3012032BDAE001040811FA1C868
:10445000A6A83FD300D580D9F1DA12DB202002A430
:10446000A6AF0000DFF800F0ADA7FF1FDFF800F0F7
:1044700095A7FF1FDFF800F0A1A7FF1F454840F2F6
:104480002311016043F21022026070474148016825
:10449000012903D143F210210160016070473E49B8
:1044A0000A6801280CBF00200120520840EA42009F
:1044B0000860704739490A6860F307120A6070475C
:1044C00037490A681040401E8041C043C00F704702
:1044D0002DE9F04180463F20FFF7C4FF2F4E37689B
:1044E000306820F4803030603F0C0120FFF7BEFFC1
:1044F0000420FFF7BFFF2B48C8F800000024002568
:1045000007F0010741F2010104E0641CA2B28A42F3
:1045100028BF0925B068C0F300200028F5D026E0A8
:104520002DE9F04180463F20FFF79CFF1B4E376886
:10453000306820F4803030603F0C0120FFF796FF98
:104540000520FFF797FF1748C8F800000024002552
:1045500007F0010741F2010104E0641CA2B28A42A3
:1045600028BF0925B068C0F300200028F5D010202E
:10457000FFF778FF0020FFF77DFF0020FFF776FFB1
:10458000306820F4803040EA074030602846BDE8BB
:10459000F0810000000401400404014008040140CF
:1045A000100401407856341215481649164B4160E4
:1045B000F0221A700021816007220260704738B52E
:1045C0000F480168124800910288521C028000982E
:1045D000410714D50D4D06242878012801BF6868CD
:1045E000411E6960002807D10120687000212970F0
:1045F000AA680AB1002090470C35641EECD131BD89
:1046000010E000E03FD10C0023ED00E0E8EFFF1FD9
:1046100008F1FF1F2DE9F843089C8046894616469D
:104620001F4600F010FB00F071FB08F2446549469C
:104630002F606C60AE60404600F0AEFB68680168B9
:104640008847002288F82121BDE8F14300F02ABB09
:1046500080B500F05BFB002002BD1CB50446694636
:1046600000F092FE9DF8000010F01F0003D0022819
:104670000BD005D30EE06946204600F093FC10E015
:104680006946204600F043FD0BE06946204600F0F5
:104690006DFD06E09DF8001001F08001204600F05D
:1046A00030FC002016BD10B5044608002BD104F2E2
:1046B00021110878032832D104F56D70426903682E
:1046C000934210D2D21A4261E178012902D14168A5
:1046D000194441609A42416828BF1A4692B2204666
:1046E00000F0C0FE1BE000224261D4F844261069AD
:1046F00028B14878032802D111692046884720460E
:1047000000F0B8FE0BE0D4F84426906938B104F20A
:1047100021135878032802D192692046904700203F
:1047200010BD70B50446080042D104F22115287866
:10473000022833D104F59A767269316891420DD21C
:10474000521A7261E078012802D1706808447060E2
:1047500092B27168204600F07DFE1FE0B269B2FBA4
:10476000F1F001FB102060B98A420AD3F06982425D
:1047700007D200220021204600F06CFE0020F061EC
:104780000CE0D4F84416C86828B16878032802D130
:10479000C96820468847204600F074FE68790128E1
:1047A00012D10A49086822695060002068710BE044
:1047B000D4F84426506938B104F2211358780328FC
:1047C00002D1526920469047002070BDF8F0FF1FCB
:1047D00010B5044600234022002100F01DFB0023F9
:1047E00040228021204600F017FB0120D4F8481613
:1047F00084F822014A68A0789047002010BD10B5C7
:104800000446D4F848060169884704F591700322EC
:10481000417801700270002010BD80B500F59171E3
:1048200004230A784A700B70D0F84806C16888479C
:10483000002002BD80B5D0F84416C96901B188478F
:10484000002002BD10B500F2446422681368984746
:10485000606881688847002010BD80B5D0F8442684
:1048600053689847002002BD80B5D0F844160A6A04
:104870009047002002BD80B5D0F844164A6A9047A0
:10488000002002BD10B50446D4F8480641698847A7
:10489000012084F82501002010BD38B5044604F23B
:1048A00044656868816988472A6853680021204602
:1048B0009847002084F8250132BD00000300002045
:1048C00013F0030F09D0521E22BF13F8010B11F889
:1048D00001CBB0EB0C00F3D0704711F0030F14D1F3
:1048E000121F22BF53F8040B51F804CB6045F7D0D8
:1048F000121D0AD200BA9CFA8CFCB0EB0C0038BF37
:104900006FF0000088BF01207047521E22BF13F8CD
:10491000010B11F801CBB0EB0C00F6D0521C08BF14
:104920001046704762F30F2262F31F42401810F0E6
:10493000030308D0C91A1FD3DB0748BF00F8012DB5
:1049400028BF20F8022D130030B414461546103944
:1049500028BF20E93C00FAD8490728BF20E90C000D
:1049600048BF40F8042D890028BF20F8022D48BF19
:1049700000F8012D30BC7047C91818BF00F8012D90
:10498000CB0728BF00F8012D7047000010B58CB090
:104990006846002100220023002480E81E00202118
:1049A00004A8FEF757F80023312202210020FEF769
:1049B000C6F80023302204210020FEF7C0F80121B0
:1049C0001020FEF74BF8664C204600F0FBFD04A8D3
:1049D000FEF71AFC0A9901910022624902918DF8B2
:1049E000002003926946204600F0F6FD0121204692
:1049F00000F01AFE0CB010BD70B54FF4803425469F
:104A0000574E60B94FF40031304600F021FE0128C6
:104A100022D12846451E0028F4D1012070BD012175
:104A2000304600F01CFE0121304600F007FE4FF436
:104A30000031304600F00CFE05460121304600F002
:104A400007FE002D18BF002804D12046441E002870
:104A5000EDD1E2E7002070BD0121304600F0E9FD14
:104A6000E5E7F8B54FF48036044637463C4D8021E3
:104A7000284600F0EDFD68B93846471E0028F6D1FB
:104A80000120F2BD2046441E58B9F9E72046441ED5
:104A900070B9F5E7214628464162C046E00706D4D2
:104AA00034460821284600F0D3FD0028EAD03446D9
:104AB0004FF48061284600F0CBFD0128E6D00020AD
:104AC000F2BDF8B54FF4803604463746244D8021B8
:104AD000284600F0BDFD68B93846471E0028F6D1CB
:104AE0000120F2BD2046441E48B9F9E72046441E85
:104AF00060B9F5E7214628464162C04634460821A0
:104B0000284600F0A5FD0028ECD034464FF4806123
:104B1000284600F09DFD0128E8D00020F2BD70B5C8
:104B20004FF4803425460E4E4FF40031304600F0ED
:104B30008FFD48B92846451E0028F5D1012070BDDB
:104B40002046441E20B9F9E70121304600F07BFDE4
:104B50001021304600F07CFD0028F1D0002070BD0F
:104B600000E00440801A060010B504460020FFF75C
:104B700043FF010013D17820FFF773FF01000ED12E
:104B80000020FFF79EFF010009D12046FFF799FFA3
:104B9000010004D1FFF7C3FF010008BF002010BDD2
:104BA00010B504460020FFF727FF010013D178203D
:104BB000FFF757FF01000ED14020FFF782FF0100F1
:104BC00009D12046FFF77DFF010004D1FFF7A7FFC1
:104BD000010008BF002010BDF8B504460D4600F0E6
:104BE00049FD00260746AE4207D214F8010BFFF735
:104BF000BBFF002808BF761CF5D014E001B50121E9
:104C00006846FFF7E9FF02BDF8B504460D4600F01F
:104C100031FD0026074604E014F8010BFFF7C0FF42
:104C2000761CAE42F8D3384680F310883046F2BD89
:104C300001B501216846FFF7E7FF02BDA6E60000C7
:104C40004E4800F01DBDE0B50021CDE900116A46D7
:104C500002218DF8001000204FF40061FDF70CFFD9
:104C60006A464FF480510020FDF706FF00230A2218
:104C70004FF400710020FDF762FF00230A224FF479
:104C800000610020FDF75BFF00230A224FF48051F2
:104C90000020FDF754FF01214FF48070FDF7DEFE88
:104CA00003B000BD7CB51E20ADF8020040F2131128
:104CB000334AADF800100192684600F025FFBDF9B7
:104CC0000200020008D4012400F01F012D4D04FA57
:104CD00001F1560945F82610002803D42A49F0208E
:104CE000885406E0294802F00F028118F02301F8E9
:104CF000043CBDF90210080007D4012201F01F0096
:104D0000234B8240490943F8212073BD7CB51E2006
:104D1000ADF8020040F21311194AADF800100192EB
:104D2000684600F0F1FEBDF90200020008D401243B
:104D300000F01F01134D04FA01F1560945F8261041
:104D4000002803D41049F020885406E00F4802F0F0
:104D50000F028118F02301F8043CBDF9021008008D
:104D60000BD4012201F01F000A4B8240490943F88D
:104D70002120BFF34F8FBFF36F8F73BD5C80FF1F88
:104D8000414C000080E200E000E400E018ED00E0AB
:104D900000E100E080E100E010B50446FEF7E3FB2F
:104DA00004F591700121002201708270002004F549
:104DB000967100230AE001224A700870C8804022E0
:104DC000CB708A60CB604B61401C28316278904286
:104DD000F1D3002004F56B7109E04B700870C880B6
:104DE0004022CB708A60CB604B61401C28316278D6
:104DF0009042F2D32046FEF743FC2046FEF70EFC1D
:104E000000212046FEF779FC2046FEF789FC20466B
:104E1000BDE81040FEF72FBC70B501F07F0404EB35
:104E2000840500EBC5040E064CBF04F5967404F52A
:104E30006B7401F07F052570C9096170A260E37091
:104E4000617809B12278E280022B04BF0021217130
:104E50002146FEF7EFFC002070BD10B501F07F0287
:104E600002EB820300EBC3020C064CBF02F5967204
:104E700002F56B7201F07F031370C909517011467E
:104E8000FEF70DFD002010BD38B50C4601F07F0186
:104E900001EB810500EBC50101F56B7100254B614C
:104EA00004F07F0400238B61CA604D700C70C378DE
:104EB000012B08BF0A61220002D1FEF7B0FD01E01C
:104EC000FEF704FD002032BD70B50C4601F07F01F5
:104ED00001EB810504F07F0400EBC50101F596713B
:104EE0000C70CA600A61012600240A784E708C6139
:104EF0004B6112B9FEF793FD01E0FEF7E7FC0020DD
:104F000070BD10B50B0608D501F07F0202EB8204DC
:104F100000EBC40202F5967205E001EB810300EBA1
:104F2000C30303F56B720124947001F07F031370C7
:104F3000C90951701146FEF7E7FD002010BD10B5FC
:104F40000B0608D501F07F0202EB820400EBC402DD
:104F500002F5967205E001EB810300EBC30303F554
:104F60006B720024947001F07F031370C9095170B3
:104F70001146FEF7E0FD002010BD80B50A0604D5FD
:104F800001F07F01FEF783FB01E0FEF79BFB0020B1
:104F900002BD00690268090101F4FE61114301606C
:104FA0007047000070B504464878020604F2446277
:104FB0004CBF0220032010744878092800F29D801D
:104FC000DFE800F06E889B729B09059B5C282046F9
:104FD00000F042F999E08888002804BFC8880028BA
:104FE00040F0908004F59076B0788D78032805F035
:104FF0007F0500F08780357129462046FFF7C9FFFD
:10500000204600F037FA002D07BF0121B1700220C1
:10501000B0707AE0DFF85C5348882870297802295C
:1050200070D204F59076B07802281ED06AD3042896
:1050300001D005D366E00FF2F03000F0BFFD64E070
:1050400031B90220B07031702046FFF706FC50E005
:10505000307881424DD001462046FFF7FEFB29788B
:1050600031702046FFF7EEFB43E0002941D00320DA
:10507000B07031702046FFF7E5FB3AE0C8880128A0
:1050800040D104F590718878022803D0032839D1E3
:10509000012201E00122B849204600F0D1F934E0B4
:1050A000204600F055F930E04888012803D104F586
:1050B0009073986019E0022802BF8888C0B2002867
:1050C00023D12069AD494068086004F59072012041
:1050D00090710EE004F5907083789B1E012B11D81F
:1050E0004E88012E11D100238360204612689368F8
:1050F0009847204600F0BEF907E012689368204602
:10510000984710B1204600F05DF9002070BD38B519
:105110000D460446687818B9204600F019F923E0D6
:105120000A2814D12878212813D194F822010328C1
:1051300017D12879022814D2D4F84426936820463F
:105140009847E88880B9204600F094F90CE0FE28E2
:10515000EBD18B49002008600122204600F070F955
:1051600002E0204600F02EF9002032BD38B504469A
:105170000D4668782979002832D0012816D00328F6
:1051800067D194F82221022A31D0032A5ED168889F
:1051900028B900291EBF80292046FFF7B2FED4F8A7
:1051A0004426936829462046984715E094F8220142
:1051B00002281CD0032849D16888002849D1002939
:1051C00018BF802908D02046FFF7B9FED4F844263E
:1051D0009368294620469847204600F04BF938E06E
:1051E00094F82201022802D0032808D02EE00029DA
:1051F00018BF80292DD02046FFF783FE29E00A063C
:1052000060480CD5CB0801EB13752D09A1EB0511F6
:1052100001EB810204EBC20191F82E310BE0CA08C8
:1052200001EB12731B09A1EB031101EB810204EBEB
:10523000C20191F8AE33591E8941C943C90F0160BB
:1052400002220146204600F0FBF802E0204600F072
:10525000B9F8002032BD00007CB5044600200D46A0
:10526000ADF800006888020A012A04D06CD3032A32
:1052700032D026D368E004F244629368A0781E68B6
:105280006946B047E988402903D10822ADF80020DB
:1052900006E094F822110129F7D0BDF8001079B189
:1052A000E98869B1BDF80010EA88914288BF1146CB
:1052B000ADF800100146BDF80020204600F0C0F80F
:1052C00073BD04F244663268A078936A69469847D1
:1052D00002214170F060E0E7C0B2052834D8DFE871
:1052E00000F0030B131B232B04F244629368A07895
:1052F0005A6869469047D0E704F244629368A07800
:105300009A6869469047C8E704F244629368A078B7
:10531000DA6869469047C0E704F244629368A0786F
:105320001A6969469047B8E704F244629368A07826
:105330005A6969469047B0E704F244629368A078DE
:105340009A6969469047A8E7204600F03BF873BD8C
:1053500090F82211891E01290AD8094901230B60FE
:10536000D0F828210AB103230B60022200F068B8AC
:1053700028E00000F0F0FF1FF4F0FF1FF8F0FF1F1F
:1053800000F1FF1FFCF0FF1F30B400F22C62137815
:105390000B7054784C709378D47803EB04254D80CF
:1053A0001379547903EB04258D809379D27903EB3B
:1053B0000222CA80012192B2C0F8502180F8211146
:1053C00030BC704710B504468021FFF79AFD0021DC
:1053D0002046FFF796FD2046BDE81040FEF7D8BBFB
:1053E00000280B4600D1704770B40146002400E04D
:1053F000641C11F8015B002DFAD12406E40DA41CF5
:1054000014801188197003225A70022207E010F8E4
:10541000011BD4B2521C1955D6B2521C9D550178AD
:105420000029F4D170BC70477365742063666720EF
:105430006661696C2C73757370656E6465640A00CF
:1054400080B5134600F5A47253601360022280F801
:10545000212101E080B513460A460021FFF734FD03
:10546000002002BD80B513460A460021FFF70CFD5F
:10547000002002BD80B5042180F82111002300F234
:105480002C62EAE780B5052180F82111002300F2A3
:105490002C62EAE701EB810200EBC200D0F8C40302
:1054A00080B270472DE9F84F05460027286BBB46B0
:1054B000C0F3001018B12F6B07F003077F1C4FF0EB
:1054C000020819B1B3FBF1F0A0EB020B584600F053
:1054D00089FB0446384600F085FB4FF0844100F01C
:1054E0008FFB4FF0804100F08BFB4FF0804100F0CC
:1054F000F9FB0146204600F061FC5C4E8146B07924
:1055000000F070FB01460724484600F0D5FC4FF040
:10551000000A35D9707900F065FB0146062448463B
:1055200000F0CAFC2CD9307900F05CFB0146052460
:10553000484600F0C1FC23D9F07800F053FB014647
:105540000424484600F0B8FC1AD9B07800F04AFBB1
:1055500001460324484600F0AFFC11D9707800F0F2
:1055600041FB01460224484600F0A6FC08D93078E9
:1055700000F038FB01460124484600F09DFC00D8AD
:10558000A24616F80A00E96A21F4E02141EA0A413C
:10559000BAF1000FE96208BF4FF00308BBFBF0F05F
:1055A0004108CA1BEB6AA2EB080262F30403EB6238
:1055B000401AC71BE86AA7EB080767F30C20E862EC
:1055C000BDE8F18F0168490849000160026842F4B2
:1055D000004202600020704738B5002504460029CB
:1055E00014BF002C04251DD0206840084000206016
:1055F000226842F400422260206840F001002060EE
:105600004B68CA6889682046FFF74CFF226822F081
:1056100040022260206820F4004020602168490890
:1056200049002160284632BD026861F30002026031
:105630007047026861F3082202607047026861F3F4
:10564000C71202607047026861F349220260704726
:1056500002460020D2690A4218BF01207047036A3F
:10566000034A1140194301627047000068AAFF1FF6
:10567000DF56F000EFF3108072B6704770470000FD
:105680002DE9F8430546FDF762FF00284FF00009B9
:1056900000F031812846FDF761FF5FEA000800F065
:1056A0002A81C8F3C04018B1284600F090F981461D
:1056B000C8F3804020B1284600F020F940EA0909EB
:1056C000C8F3400010B1E968022048615FEAD87071
:1056D000DFF8C06317D0A87A30B105F58E70016885
:1056E000006889088900016049F00109286941685A
:1056F0004908490041602846326891698847E9684D
:105700004FF000404861C8F3C02040B300208DF83E
:10571000000005F58E74A0798DF8000028463168E8
:105720004A69904728698168EB684FF400625A61C2
:10573000A87A90B1C80710D5617A012904BF9DF8F5
:105740000000032809D12068016841F001010160CF
:105750002068026842F00302026049F00109C8F3C0
:10576000C00040B13168CA6828469047E9680820FF
:10577000486149F00109C8F30010C8B3E8688169BD
:1057800021F010018161E868046A04F00F01620CE5
:1057900001EB810002F00F0205EBC000022A00F5C8
:1057A0006B770DD0062A1CD1082205F22C61284601
:1057B000FDF7ABFEB969C4F30A104118B96110E0F6
:1057C0006004400D0DD0F968C4F30A122846FDF7B5
:1057D0009CFEF968C4F30A100144F960BA698018A4
:1057E000B86149F00109E868816941F010018161FF
:1057F000C8F30030B0B328694168490849004160E6
:1058000028460021FDF743FF002005F11801FF2283
:1058100005E00B689A60401C0B6C9A60091D6B7860
:105820009842F6D329694FF0FF3088614FF001109C
:105830002969C8612B20296948610B202969086101
:1058400049F001092869016821F4FE6101602846D8
:10585000FEF79EF9E9684FF48050486128463268A7
:1058600011698847C8F34030F0B12846FDF7C8FFFA
:10587000E868C4682846FDF757FE24F470540328EE
:1058800044F4105404D10020A8704FF4007102E0D9
:105890000120A8704021E868A980C4604FF400513D
:1058A000E868416149F00109C8F3005048B1316826
:1058B000CA6928469047E9684FF48010486149F06A
:1058C0000109C8F3405048B131680A6A2846904738
:1058D000E9684FF40010486149F00109C8F380708D
:1058E00048B131684A6A28469047E9684FF08040DD
:1058F000486149F001094846BDE8F2832DE9F047C7
:105900008046FEF73FF90024054608F11806DFF847
:1059100084914FF0010A57E0E80752D5D8F81000FB
:105920000169436B08F118025FFA84FE52F82E7089
:10593000BF68E340DB0103F0800319430F40F90720
:105940001DD5426B0AFA04F39A434263404631681C
:10595000C1F808A0E1B2D9F800205368984798F838
:1059600003000127012802BF002C98F82101042818
:1059700005D14046FEF70CF9002088F82101C7F355
:10598000C00010B1316808278F60C7F3001010B154
:10599000316810278F60C7F3801010B1316840273D
:1059A0008F60C7F3400010B1316802278F60C7F3E2
:1059B000C01030B12146404600F06EF831688020BA
:1059C0008860641C6D08361D002DA5D15EE02DE9B0
:1059D000F0478146FEF7C7F80024054609F158064E
:1059E00009F56D77DFF8AC80002D4FD0E80748D57A
:1059F000E1B24846FEF7BDF882465FEACA702BD591
:105A000030684FF0010AC0F808A099F80320012A75
:105A10000CD10269F9683868884228BF0846C2F389
:105A20001202801A38610CB1891A3961E1B2D8F8D2
:105A30000030D3F800C04846E04799F80300012839
:105A400002BF002C99F82101052805D14846FEF730
:105A50009FF8002089F82101CAF3400010B1316895
:105A600002208860E1B24846FEF783F8C0F3C00028
:105A700038B1D8F800108A68484690473168082045
:105A80008860641C6D082837361DADE70120BDE82D
:105A9000F08700007CAAFF1F2DE9F04180460D46EB
:105AA00005EB850008EBC00000F596767169B069DA
:105AB000B768081A874288BF0746FF1CBF0808F16D
:105AC000180050F82510886980B287423EBF70697F
:105AD000B169814214D298B1EAB2B468411A404621
:105AE0008C4288BF0C46F168A3B2FDF7F7FCF06862
:105AF000B1690019E71CF0606418BF08B461DEE703
:105B00000120BDE8F081000070B4014600200A5E6B
:105B1000530903EB43046300B1F9024003F120068B
:105B2000B44224BF2533A34203D2202C28BF042033
:105B300014D2204B03EB840340F2FF161D68C5F31B
:105B40000805B54209D11D6862F308051D60496862
:105B5000194A42F8241070BC7047072070BC704787
:105B600080B5AFF3008001BD80B5AFF3008001BD0B
:105B700080B5AFF3008001BD80B5AFF3008001BDFB
:105B800080B5AFF3008001BD80B5AFF3008001BDEB
:105B900080B5AFF3008001BD80B5AFF3008001BDDB
:105BA00080B5FEF70CFD01BD0348806F002818BFCB
:105BB000004770475C1005409CEAFF1F0EB4C0B55B
:105BC000024603A800210190009101AB0121044885
:105BD00078440C3000F08EF906BC5DF810FB00BF75
:105BE000D91A000000280AD0B0FA80F18840D1F11B
:105BF0009D01C905020672F1004241EB1020704779
:105C000090EA010F40F10A8281F00041431A4FF0FF
:105C100000423EBF5340C01AC91800BFD3095FEA13
:105C2000D05C13EB400F34BFB3EB410F40E07CEB93
:105C3000D1530CD342EA012122D8D1EB402009D321
:105C4000400A28BF5FEA500140EBCC507047401A31
:105C500015D04002B0FA80F2521C9040400A4FEA40
:105C60003C23B3EB026384BF00EB730007E040F416
:105C700000001A16DB07C2F10102D040184370473A
:105C8000182BFCDC31FA03F202FA03F3591A38BF7D
:105C900042F00102D2EB40203CBF4000ACF1010CCD
:105CA0005FEACC5CC20572F100414CEB50207047BA
:105CB00013EB400F0FD2C94209D0ACEBD153022BEA
